:020000040000FA
:0400000051EF7BF051
:0400080027EF02F0EC
:08001800DAEF00F0516A506AB2
:10002000526A536A546A556A566A576A596A586AD4
:100030005A6A5B6A5C6A5D6A5E6A5F6A616A606A84
:10004000626A636A646A656A666A676A3C0E686EB9
:1000500012000E6A136AE50E096E100E0A6E200E6B
:100060000B6E2D500C6E2E500D6E6650E8AE02D009
:10007000E89E0E800F6E6750E8AE02D0E89E0E82BA
:10008000106E5250E8AE02D0E89E0E84116E5350AE
:10009000E8AE02D0E89E0E86126E5450E8AE02D052
:1000A000E89E1380146E5550E8AE02D0E89E13828D
:1000B000156E5650E8AE02D0E89E1384166E575067
:1000C000E8AE02D0E89E1386176E100E196EE3ECB0
:1000D00001F00E6A136A210E0B6E5A50E8AE02D080
:1000E000E89E0E800F6E5B50E8AE02D0E89E0E8256
:1000F000106E5C50E8AE02D0E89E0E84116E5D502A
:10010000E8AE02D0E89E0E86126E6450E8AE02D0D1
:10011000E89E1380146E6550E8AE02D0E89E13820C
:10012000156E6050E8AE02D0E89E1384166E6150E2
:10013000E8AE02D0E89E1386176E100E196EE3EC3F
:1001400001F00E6A136A220E0B6E6250E8AE02D006
:10015000E89E0E800F6E6350E8AE02D0E89E0E82DD
:10016000106E5850E8AE02D0E89E0E84116E5950C1
:10017000E8AE02D0E89E0E86126E5E50E8AE02D067
:10018000E89E1380146E5F50E8AE02D0E89E1382A2
:10019000156E5050E8AE02D0E89E1384166E515092
:1001A000E8AE02D0E89E1386176E100E196EE3ECCF
:1001B00001F01200796ED8CF7AF0E0CF7BF09EA0EC
:1001C00046D09E907CAA0CD0829CAB8EB350030B81
:1001D000060FE81CCF6EB250CE6E7C9A7C94C1D0D4
:1001E0007CACF4D7E1CF77F0E2CF78F013EE00F0FB
:1001F000E750746E7CA604D0B8AC20D082AE1ED07E
:100200007CB40CD0B06A770EAF6ECA0ECE6ECF68DB
:100210007C8477C0E1FF78C0E2FFA3D0E750AD6EE9
:100220007C867C88736A523E03D0533E01D0542AA8
:10023000000077C0E1FF78C0E2FF93D0603E01D0BC
:10024000612A000077C0E1FF78C0E2FFBFD7ABA40E
:1002500016D05A3E01D05B2A00000000AE50AE50CE
:100260007668AB9E828C7C987C90FC0ECF6E7B0E69
:10027000CE6E7C8A503E01D0512A000072D0AE5022
:10028000726E553E03D0563E01D0572A000072BE12
:10029000716AE1CF77F0E2CF78F0030EE26E800E64
:1002A0007124E16E7250E76E77C0E1FF78C0E2FF23
:1002B00072AE13D07250706E72BC06D072BA02D099
:1002C000020E08D0040E06D072BA02D0060E02D07A
:1002D0007C82FF0E766E712A1BD07250701A7CB22F
:1002E000766E7C92712A7150766212D0010E716E18
:1002F000701ED8A407D07C80AE50583E01D0592A39
:10030000000006D07C8E5C3E01D05D2A000029D022
:100310007CA85CD772507418D8A4A0D7E1CF77F02E
:10032000E2CF78F0732A030EE26E000E7324E16EC2
:10033000E750746E7350756207D07C9C7C9877C0D0
:10034000E1FF78C0E2FF42D7E750AD6E7C88523EB5
:1003500003D0533E01D0542A000077C0E1FF78C09B
:10036000E2FF7BC0E0FF79507AC0D8FFF28C10002A
:100370007C6A7D6A010E716E949C948E010EB46E3F
:100380009298B886B888AC98AC94B06A770EAF6E85
:10039000AB8EAB88AC8AAE50AE50AE50AB92AB9445
:1003A000CF6ACE6A310ECD6E9D8A9D809F909F9AB6
:1003B000D08EF28C1200F29E550EA76EAA0EA76E7A
:1003C000A682F28E12001C50192405E3663E01D06D
:1003D000672A00001200623E01D0632A0000186AFA
:1003E00001EE00F010EE09F01A50E96E1A2A1950C9
:1003F000EF6E036E1C2A0306E92A1A2A1C2AE7500C
:10040000EF6E181AE12A032EF7D7E92A1A2A1C2AB6
:100410001850E81CEF6E12007CBC12001A501B62D0
:1004200001D0120003EE00F021EE00F01B50D9269F
:10043000DF50036E756E1B2A1C06D92ADF50EF6E43
:0E044000E92A1B2A1C06032EF8D77C8C12001A
:10050000F9509E92CA9406A002D006901100FF0EE8
:10051000CB6E0680CA840044E844F926809211001C
:1005200080941100809A110084901100849211002F
:1005300084941100809E1100809C11008290110013
:100540008292110082941100829611008390110012
:1005500083921100839411008396110082981100F8
:10056000829A110083981100839A1100839C1100D4
:10057000839E1100819011008192110081941100DD
:100580008196110081981100819A1100819C1100BF
:10059000819E1100020100BF809701BF819702BFB9
:1005A000829703BF839704BF849705BF859706BFD3
:1005B000869707BF879708BF889709BF89970ABFA3
:1005C0008A970BBF8B970CBF8C970DBF8D970EBF73
:1005D0008E970FBF8F9710BF909711BF919712BF43
:1005E000929713BF939714BF949715BF959716BF13
:1005F000969717BF979718BF989719BF99971ABFE3
:100600009A971BBF9B971CBF9C971DBF9D9700008F
:100610001200220ECA6E9D82D08E9F6AA26AF06A74
:10062000F16A9F82F28E026A06901200CAB412002A
:10063000020100AF40D080B73ED080A11ED080AB79
:1006400006D0C02F2ED0809B8091020634D0D89047
:100650006051C02726E380A908D0A02BA051406399
:1006600020D08091808302061CD0A007A051206377
:1006700018D080918093020614D0030E02601BD024
:1006800080AB05D08081022A3C0EC06F0AD080B9B1
:1006900003D080A310D002D080B30DD08081022A75
:1006A000C06BA051CB6E000E006E8087F29C8082E2
:1006B000CA84F28C1200000001AF40D081B73ED056
:1006C00081A11ED081AB06D0C12F2ED0819B8191FC
:1006D000020634D0D8906151C12726E381A908D001
:1006E000A12BA151416320D08191818302061CD0AE
:1006F000A107A151216318D081918193020614D0E2
:10070000030E02601BD081AB05D08181022A3C0E12
:10071000C16F0AD081B903D081A310D002D081B3B8
:100720000DD08181022AC16BA151CB6E010E006EEA
:100730008187F29C8084CA84F28C1200000002AF90
:1007400040D082B73ED082A11ED082AB06D0C22F4D
:100750002ED0829B8291020634D0D8906251C2275B
:1007600026E382A908D0A22BA251426320D0829115
:10077000828302061CD0A207A251226318D0829164
:100780008293020614D0030E02601BD082AB05D008
:100790008281022A3C0EC26F0AD082B903D082A3A2
:1007A00010D002D082B30DD08281022AC26BA25136
:1007B000CB6E020E006E8287F29C808ACA84F28C15
:1007C0001200000003AF40D083B73ED083A11ED0FB
:1007D00083AB06D0C32F2ED0839B8391020634D0E7
:1007E000D8906351C32726E383A908D0A32BA35134
:1007F000436320D08391838302061CD0A307A351B7
:10080000236318D083918393020614D0030E0260F1
:100810001BD083AB05D08381022A3C0EC36F0AD064
:1008200083B903D083A310D002D083B30DD08381CA
:10083000022AC36BA351CB6E030E006E8387F29C1A
:100840008480CA84F28C1200000004AF40D084B7C8
:100850003ED084A11ED084AB06D0C42F2ED0849B62
:100860008491020634D0D8906451C42726E384A929
:1008700008D0A42BA451446320D084918483020621
:100880001CD0A407A451246318D084918493020639
:1008900014D0030E02601BD084AB05D08481022AE1
:1008A0003C0EC46F0AD084B903D084A310D002D008
:1008B00084B30DD08481022AC46BA451CB6E040E84
:1008C000006E8487F29C8482CA84F28C120000003D
:1008D00005AF40D085B73ED085A11ED085AB06D0F0
:1008E000C52F2ED0859B8591020634D0D8906551B6
:1008F000C52726E385A908D0A52BA551456320D09F
:100900008591858302061CD0A507A551256318D0C3
:1009100085918593020614D0030E02601BD085AB2F
:1009200005D08581022A3C0EC56F0AD085B903D057
:1009300085A310D002D085B30DD08581022AC56B66
:10094000A551CB6E050E006E8587F29C8484CA8407
:10095000F28C1200000006AF40D086B73ED086A1D0
:100960001ED086AB06D0C62F2ED0869B869102065F
:1009700034D0D8906651C62726E386A908D0A62B86
:10098000A651466320D08691868302061CD0A60716
:10099000A651266318D086918693020614D0030EC2
:1009A00002601BD086AB05D08681022A3C0EC66F42
:1009B0000AD086B903D086A310D002D086B30DD05A
:1009C0008681022AC66BA651CB6E060E006E868704
:1009D000F29C808ECA84F28C1200000007AF40D0D7
:1009E00087B73ED087A11ED087AB06D0C72F2ED0A9
:1009F000879B8791020634D0D8906751C72726E39A
:100A000087A908D0A72BA751476320D08791878358
:100A100002061CD0A707A751276318D08791879398
:100A2000020614D0030E02601BD087AB05D087816D
:100A3000022A3C0EC76F0AD087B903D087A310D013
:100A400002D087B30DD08781022AC76BA751CB6E26
:100A5000070E006E8787F29C808CCA84F28C12008D
:100A6000000008AF40D088B73ED088A11ED088AB28
:100A700006D0C82F2ED0889B8891020634D0D890FB
:100A80006851C82726E388A908D0A82BA851486335
:100A900020D08891888302061CD0A807A85128631B
:100AA00018D088918893020614D0030E02601BD0E0
:100AB00088AB05D08881022A3C0EC86F0AD088B95D
:100AC00003D088A310D002D088B30DD08881022A29
:100AD000C86BA851CB6E080E006E8887F29C82808E
:100AE000CA84F28C1200000009AF40D089B73ED012
:100AF00089A11ED089AB06D0C92F2ED0899B8991A0
:100B0000020634D0D8906951C92726E389A908D0B4
:100B1000A92BA951496320D08991898302061CD051
:100B2000A907A951296318D089918993020614D085
:100B3000030E02601BD089AB05D08981022A3C0ECE
:100B4000C96F0AD089B903D089A310D002D089B364
:100B50000DD08981022AC96BA951CB6E090E006E96
:100B60008987F29C8282CA84F28C120000000AAF4C
:100B700040D08AB73ED08AA11ED08AAB06D0CA2FF9
:100B80002ED08A9B8A91020634D0D8906A51CA2707
:100B900026E38AA908D0AA2BAA514A6320D08A91B9
:100BA0008A8302061CD0AA07AA512A6318D08A9108
:100BB0008A93020614D0030E02601BD08AAB05D0C4
:100BC0008A81022A3C0ECA6F0AD08AB903D08AA34E
:100BD00010D002D08AB30DD08A81022ACA6BAA51E2
:100BE000CB6E0A0E006E8A87F29C8284CA84F28CD5
:100BF000120000000BAF40D08BB73ED08BA11ED0AF
:100C00008BAB06D0CB2F2ED08B9B8B91020634D092
:100C1000D8906B51CB2726E38BA908D0AB2BAB51D7
:100C20004B6320D08B918B8302061CD0AB07AB515A
:100C30002B6318D08B918B93020614D0030E0260A5
:100C40001BD08BAB05D08B81022A3C0ECB6F0AD018
:100C50008BB903D08BA310D002D08BB30DD08B8176
:100C6000022ACB6BAB51CB6E0B0E006E8B87F29CC6
:100C70008286CA84F28C120000000CAF40D08CB780
:100C80003ED08CA11ED08CAB06D0CC2F2ED08C9B0E
:100C90008C91020634D0D8906C51CC2726E38CA9D5
:100CA00008D0AC2BAC514C6320D08C918C830206C5
:100CB0001CD0AC07AC512C6318D08C918C930206DD
:100CC00014D0030E02601BD08CAB05D08C81022A9D
:100CD0003C0ECC6F0AD08CB903D08CA310D002D0BC
:100CE0008CB30DD08C81022ACC6BAC51CB6E0C0E28
:100CF000006E8C87F29C8380CA84F28C1200000004
:100D00000DAF40D08DB73ED08DA11ED08DAB06D09B
:100D1000CD2F2ED08D9B8D91020634D0D8906D5161
:100D2000CD2726E38DA908D0AD2BAD514D6320D042
:100D30008D918D8302061CD0AD07AD512D6318D067
:100D40008D918D93020614D0030E02601BD08DABE3
:100D500005D08D81022A3C0ECD6F0AD08DB903D00B
:100D60008DA310D002D08DB30DD08D81022ACD6B12
:100D7000AD51CB6E0D0E006E8D87F29C8382CA84BE
:100D8000F28C120000000EAF40D08EB73ED08EA184
:100D90001ED08EAB06D0CE2F2ED08E9B8E9102060B
:100DA00034D0D8906E51CE2726E38EA908D0AE2B32
:100DB000AE514E6320D08E918E8302061CD0AE07BA
:100DC000AE512E6318D08E918E93020614D0030E6E
:100DD00002601BD08EAB05D08E81022A3C0ECE6FF6
:100DE0000AD08EB903D08EA310D002D08EB30DD00E
:100DF0008E81022ACE6BAE51CB6E0E0E006E8E87A8
:100E0000F29C8384CA84F28C120000000FAF40D0A1
:100E10008FB73ED08FA11ED08FAB06D0CF2F2ED054
:100E20008F9B8F91020634D0D8906F51CF2726E345
:100E30008FA908D0AF2BAF514F6320D08F918F83F4
:100E400002061CD0AF07AF512F6318D08F918F933C
:100E5000020614D0030E02601BD08FAB05D08F8129
:100E6000022A3C0ECF6F0AD08FB903D08FA310D0C7
:100E700002D08FB30DD08F81022ACF6BAF51CB6ED2
:100E80000F0E006E8F87F29C8386CA84F28C12004C
:100E9000000010AF40D090B73ED090A11ED090ABD4
:100EA00006D0D02F2ED0909B9091020634D0D890AF
:100EB0007051D02726E390A908D0B02BB0515063D1
:100EC00020D09091908302061CD0B007B0513063BF
:100ED00018D090919093020614D0030E02601BD09C
:100EE00090AB05D09081022A3C0ED06F0AD090B909
:100EF00003D090A310D002D090B30DD09081022ADD
:100F0000D06BB051CB6E100E006E9087F29C828831
:100F1000CA84F28C1200000011AF40D091B73ED0CD
:100F200091A11ED091AB06D0D12F2ED0919B919143
:100F3000020634D0D8907151D12726E391A908D068
:100F4000B12BB151516320D09191918302061CD0F5
:100F5000B107B151316318D091919193020614D029
:100F6000030E02601BD091AB05D09181022A3C0E8A
:100F7000D16F0AD091B903D091A310D002D091B310
:100F80000DD09181022AD16BB151CB6E110E006E42
:100F90009187F29C828ACA84F28C1200000012AF00
:100FA00040D092B73ED092A11ED092AB06D0D22FA5
:100FB0002ED0929B9291020634D0D8907251D227B3
:100FC00026E392A908D0B22BB251526320D092915D
:100FD000928302061CD0B207B251326318D09291AC
:100FE0009293020614D0030E02601BD092AB05D080
:100FF0009281022A3C0ED26F0AD092B903D092A3FA
:1010000010D002D092B30DD09281022AD26BB2518D
:10101000CB6E120E006E9287F29C8388CA84F28C8B
:101020001200000013AF40D093B73ED093A11ED062
:1010300093AB06D0D32F2ED0939B9391020634D03E
:10104000D8907351D32726E393A908D0B32BB3517B
:10105000536320D09391938302061CD0B307B351FE
:10106000336318D093919393020614D0030E026059
:101070001BD093AB05D09381022A3C0ED36F0AD0CC
:1010800093B903D093A310D002D093B30DD0938122
:10109000022AD36BB351CB6E130E006E9387F29C72
:1010A000838ACA84F28C1200000014AF40D094B737
:1010B0003ED094A11ED094AB06D0D42F2ED0949BBA
:1010C0009491020634D0D8907451D42726E394A981
:1010D00008D0B42BB451546320D094919483020669
:1010E0001CD0B407B451346318D094919493020681
:1010F00014D0030E02601BD094AB05D09481022A59
:101100003C0ED46F0AD094B903D094A310D002D06F
:1011100094B30DD09481022AD46BB451CB6E140ECB
:10112000006E9487F29C838CCA84F28C12000000BB
:1011300015AF40D095B73ED095A11ED095AB06D047
:10114000D52F2ED0959B9591020634D0D89075510D
:10115000D52726E395A908D0B52BB551556320D0E6
:101160009591958302061CD0B507B551356318D00B
:1011700095919593020614D0030E02601BD095AB97
:1011800005D09581022A3C0ED56F0AD095B903D0BF
:1011900095A310D002D095B30DD09581022AD56BBE
:1011A000B551CB6E150E006E9587F29C838ECA8466
:1011B000F28C1200000016AF40D096B73ED096A138
:1011C0001ED096AB06D0D62F2ED0969B96910206B7
:1011D00034D0D8907651D62726E396A908D0B62BDE
:1011E000B651566320D09691968302061CD0B6075E
:1011F000B651366318D096919693020614D0030E1A
:1012000002601BD096AB05D09681022A3C0ED66FA9
:101210000AD096B903D096A310D002D096B30DD0C1
:101220009681022AD66BB651CB6E160E006E96874B
:10123000F29C8180CA84F28C1200000017AF40D06B
:1012400097B73ED097A11ED097AB06D0D72F2ED000
:10125000979B9791020634D0D8907751D72726E3F1
:1012600097A908D0B72BB751576320D09791978390
:1012700002061CD0B707B751376318D097919793E0
:10128000020614D0030E02601BD097AB05D09781E5
:10129000022A3C0ED76F0AD097B903D097A310D07B
:1012A00002D097B30DD09781022AD76BB751CB6E7E
:1012B000170E006E9787F29C8182CA84F28C12000E
:1012C000000018AF40D098B73ED098A11ED098AB80
:1012D00006D0D82F2ED0989B9891020634D0D89063
:1012E0007851D82726E398A908D0B82BB85158636D
:1012F00020D09891988302061CD0B807B851386363
:1013000018D098919893020614D0030E02601BD057
:1013100098AB05D09881022A3C0ED86F0AD098B9B4
:1013200003D098A310D002D098B30DD09881022A90
:10133000D86BB851CB6E180E006E9887F29C8184E2
:10134000CA84F28C1200000019AF40D099B73ED089
:1013500099A11ED099AB06D0D92F2ED0999B9991E7
:10136000020634D0D8907951D92726E399A908D01C
:10137000B92BB951596320D09991998302061CD099
:10138000B907B951396318D099919993020614D0CD
:10139000030E02601BD099AB05D09981022A3C0E46
:1013A000D96F0AD099B903D099A310D002D099B3BC
:1013B0000DD09981022AD96BB951CB6E190E006EEE
:1013C0009987F29C8186CA84F28C120000001AAFC1
:1013D00040D09AB73ED09AA11ED09AAB06D0DA2F51
:1013E0002ED09A9B9A91020634D0D8907A51DA275F
:1013F00026E39AA908D0BA2BBA515A6320D09A9101
:101400009A8302061CD0BA07BA513A6318D09A914F
:101410009A93020614D0030E02601BD09AAB05D03B
:101420009A81022A3C0EDA6F0AD09AB903D09AA3A5
:1014300010D002D09AB30DD09A81022ADA6BBA5139
:10144000CB6E1A0E006E9A87F29C8188CA84F28C49
:10145000120000001BAF40D09BB73ED09BA11ED016
:101460009BAB06D0DB2F2ED09B9B9B91020634D0EA
:10147000D8907B51DB2726E39BA908D0BB2BBB511F
:101480005B6320D09B919B8302061CD0BB07BB51A2
:101490003B6318D09B919B93020614D0030E02600D
:1014A0001BD09BAB05D09B81022A3C0EDB6F0AD080
:1014B0009BB903D09BA310D002D09BB30DD09B81CE
:1014C000022ADB6BBB51CB6E1B0E006E9B87F29C1E
:1014D000818ACA84F28C120000001CAF40D09CB7F5
:1014E0003ED09CA11ED09CAB06D0DC2F2ED09C9B66
:1014F0009C91020634D0D8907C51DC2726E39CA92D
:1015000008D0BC2BBC515C6320D09C919C8302060C
:101510001CD0BC07BC513C6318D09C919C93020624
:1015200014D0030E02601BD09CAB05D09C81022A14
:101530003C0EDC6F0AD09CB903D09CA310D002D023
:101540009CB30DD09C81022ADC6BBC51CB6E1C0E6F
:10155000006E9C87F29C818CCA84F28C1200000081
:101560001DAF40D09DB73ED09DA11ED09DAB06D0F3
:10157000DD2F2ED09D9B9D91020634D0D8907D51B9
:10158000DD2726E39DA908D0BD2BBD515D6320D08A
:101590009D919D8302061CD0BD07BD513D6318D0AF
:1015A0009D919D93020614D0030E02601BD09DAB4B
:1015B00005D09D81022A3C0EDD6F0AD09DB903D073
:1015C0009DA310D002D09DB30DD09D81022ADD6B6A
:1015D000BD51CB6E1D0E006E9D87F29C818ECA841C
:1015E000F28C1200000012007CA012007C9003011B
:1015F00080511D6E81511E6E82511F6EB00E1D6294
:10160000DAEF0BF01FA8120004EE00F024EE20F039
:10161000376A1E50EF62C7D01F500F0BDF62C3D076
:10162000020EE26E000E3724E16EE750386E38BECF
:1016300004D038BC02D038A618D012EE80F0375053
:10164000E126E7981FBAE788000E1FBA120EA6B26D
:10165000FED7A86E3750800FA96EAA6ADBEC01F0A6
:10166000643E01D0652A00009ED038A886D012EED4
:1016700080F03750E12638B240D0E92AD92A1E50EE
:10168000EF6216D01F500F0BDF6212D0E7981FBA1F
:10169000E788E750A6B2FED7A86E3750800FA96E34
:1016A000AA6ADBEC01F0643E01D0652A000022D07A
:1016B0001FAA10D0E788E750A6B2FED7A86E375011
:1016C000800FA96EAA6ADBEC01F0643E01D0652AA6
:1016D000000010D0E12AE798E750A6B2FED7A86E26
:1016E0003750810FA96EAA6ADBEC01F0643E01D08D
:1016F000652A0000E906D90656D0E906D9061E502B
:10170000EF6216D01F500F0BDF6212D0E7881FBAAE
:10171000E798E750A6B2FED7A86E3750800FA96EA3
:10172000AA6ADBEC01F0643E01D0652A000022D0F9
:101730001FAA10D0E788E750A6B2FED7A86E375090
:10174000800FA96EAA6ADBEC01F0643E01D0652A25
:10175000000010D0E106E798E750A6B2FED7A86EC9
:1017600037507F0FA96EAA6ADBEC01F0643E01D00E
:10177000652A0000E92AD92A16D0030E386213D050
:101780001FA811D012EE80F03750E126E7961FBA5D
:10179000E786E750A6B2FED7A86E3750800FA96E35
:1017A000AA6ADBEC01F0E92AD92A372A1E0E376231
:1017B00030D71200E50E1D62D8EF0DF08351206E78
:1017C0008451216E8551226E8651236E8751246E7D
:1017D0008851256E8951266E8A51276E8B51286E4D
:1017E0008C51296E8D512A6E8E512B6E1FC02CF09C
:1017F00020C02DF021C02EF023C02FF024C030F0E7
:1018000025C031F026C032F028C033F029C034F0B2
:101810002AC035F02BC036F022B02F8E22B2308E87
:1018200022B4318E22B6328E27B0338E27B2348E58
:1018300027B4358E27B6368E84B62BEF0CF02D509C
:10184000016EA6B2FED7A86EAA6A1F0EA96EDBECC7
:1018500001F030EF0CF02D5203E001502D62120028
:10186000150E2C627ED00E6A136AE50E096E100EFC
:101870000A6E170E0B6E2D500C6E2E500D6E2F50E3
:10188000E8AE02D0E89E0E800F6E2E06AA6A000E09
:101890002E24A96EA680A850E8AE02D0E89E0E8243
:1018A000106E200E2E24A96EA680A850E8AE02D09D
:1018B000E89E0E84116E400E2E24A96EA680A850BC
:1018C000E8AE02D0E89E0E86126E600E2E24A96E3F
:1018D000A680A850E8AE02D0E89E1380146E800E59
:1018E0002E24A96EA680A850E8AE02D0E89E1382EE
:1018F000156E2F0419E1A00E2E24A96EA680A85003
:10190000E8AE02D0E89E1384166EC00E2E24A96E97
:10191000A680A850E8AE02D0E89E1386176E100E7F
:10192000196EE3EC01F012002F04400DF3502E2449
:10193000A96EF450010FAA6EA680A850E8AE02D09E
:10194000E89E1384166E200EA926A680A850E8AE45
:1019500002D0E89E1386176E100E196EE3EC01F0AC
:101960001200160E2C6234EF0DF02E06AA6A2E50CD
:10197000A6B2FED7A96E02EE00F02E50E926305036
:10198000EF6EA86EDBEC01F002EE20F02E50E9269F
:101990003150EF6EA6B2FED7A86E200EA926DBEC62
:1019A00001F002EE40F02E50E9263250EF6EA6B262
:1019B000FED7A86E200EA926DBEC01F002EE60F047
:1019C0002E50E9263350EF6EA6B2FED7A86E200E39
:1019D000A926DBEC01F002EE80F02E50E92634500F
:1019E000EF6EA6B2FED7A86E200EA926DBEC01F0A2
:1019F0002F041BE104EE00F02E50E9263550EF6E67
:101A0000A6B2FED7A86E200EA926DBEC01F004EEEC
:101A100020F02E50E9263650EF6EA6B2FED7A86E03
:101A2000200EA926DBEC01F012002F04400DF3502C
:101A30002E24E96EA6B2FED7A96EF450010FAA6E4D
:101A4000F450040FEA6E3550EF6EA86EDBEC01F037
:101A5000200EE926200EA6B2FED7A9263650EF6E3C
:101A6000A86EDBEC01F01200130E2C6259EF0DF0A2
:101A70002F50200AD8A412003050520AD8A41200C5
:101A80003150450AD8A412003250530AD8A412008B
:101A90003350450AD8A412003450540AD8A4120076
:101AA0003550210AD8A412003650200AD8A41200BA
:101AB000FF00310E2C62ACEF0DF02F50430AD8A47A
:101AC000120030504C0AD8A412003150450AD8A454
:101AD00012003250410AD8A412003350520AD8A43E
:101AE00012003450200AD8A412003550200AD8A47D
:101AF00012003650200AD8A41200AA6AA96AA86A5D
:101B0000036ADBEC01F0A6B2FED7A92A032EF9D7AF
:101B1000AA2ADBEC01F0A6B2FED7A92A032EF9D738
:101B2000AA2ADBEC01F0A6B2FED7A92A032EF9D728
:101B3000AA2ADBEC01F0A6B2FED7A92A032EF9D718
:101B4000A6B2FED72D50A86EAA6A1F0EA96EDBECB6
:101B500001F0A6B2FED7FF00300E2C62D3EF0DF0DD
:101B60002F50200AD8A412003050520AD8A41200D4
:101B70003150450AD8A412003250530AD8A412009A
:101B80003350450AD8A412003450540AD8A4120085
:101B90003550210AD8A412003650200AD8A41200C9
:101BA0000EEC00F01200140E2C62120029EF00F06F
:101BB000830E1D62E1EF0DF07D80F2EC18F07D9058
:101BC00012001200020E00AD0AD0A051E81ED8B4D7
:101BD00003D0E81EB36002D0808201D08092000062
:101BE00001AD0AD0A151E81ED8B403D0E81EB360FD
:101BF00002D0808401D08094000002AD0AD0A251AE
:101C0000E81ED8B403D0E81EB36002D0808A01D0A9
:101C1000809A000003AD0AD0A351E81ED8B403D0C7
:101C2000E81EB36002D0848001D08490000004AD2F
:101C30000AD0A451E81ED8B403D0E81EB36002D085
:101C4000848201D08492000005AD0AD0A551E81E1F
:101C5000D8B403D0E81EB36002D0848401D0849449
:101C6000000006AD0AD0A651E81ED8B403D0E81E85
:101C7000B36002D0808E01D0809E000007AD0AD0F4
:101C8000A751E81ED8B403D0E81EB36002D0808C00
:101C900001D0809C000008AD0AD0A851E81ED8B43D
:101CA00003D0E81EB36002D0828001D08290000091
:101CB00009AD0AD0A951E81ED8B403D0E81EB3601C
:101CC00002D0828201D0829200000AAD0AD0AA51CD
:101CD000E81ED8B403D0E81EB36002D0828401D0DD
:101CE000829400000BAD0AD0AB51E81ED8B403D0EB
:101CF000E81EB36002D0828601D0829600000CAD4F
:101D00000AD0AC51E81ED8B403D0E81EB36002D0AC
:101D1000838001D0839000000DAD0AD0AD51E81E44
:101D2000D8B403D0E81EB36002D0838201D083927E
:101D300000000EAD0AD0AE51E81ED8B403D0E81EA4
:101D4000B36002D0838401D0839400000FAD0AD029
:101D5000AF51E81ED8B403D0E81EB36002D083862A
:101D600001D08396000010AD0AD0B051E81ED8B45F
:101D700003D0E81EB36002D0828801D082980000B0
:101D800011AD0AD0B151E81ED8B403D0E81EB3603B
:101D900002D0828A01D0829A000012AD0AD0B251DC
:101DA000E81ED8B403D0E81EB36002D0838801D007
:101DB0008398000013AD0AD0B351E81ED8B403D005
:101DC000E81EB36002D0838A01D0839A000014AD6C
:101DD0000AD0B451E81ED8B403D0E81EB36002D0D4
:101DE000838C01D0839C000015AD0AD0B551E81E4C
:101DF000D8B403D0E81EB36002D0838E01D0839E96
:101E0000000016AD0AD0B651E81ED8B403D0E81EC3
:101E1000B36002D0818001D08190000017AD0AD05C
:101E2000B751E81ED8B403D0E81EB36002D0818257
:101E300001D08192000018AD0AD0B851E81ED8B484
:101E400003D0E81EB36002D0818401D081940000E9
:101E500019AD0AD0B951E81ED8B403D0E81EB3605A
:101E600002D0818601D0819600001AAD0AD0BA5105
:101E7000E81ED8B403D0E81EB36002D0818801D038
:101E8000819800001BAD0AD0BB51E81ED8B403D026
:101E9000E81EB36002D0818A01D0819A00001CAD97
:101EA0000AD0BC51E81ED8B403D0E81EB36002D0FB
:101EB000818C01D0819C00001DAD0AD0BD51E81E6F
:101EC000D8B403D0E81EB36002D0818E01D0819EC9
:101ED00000001200042E03D01E0E046E05700201D5
:101EE00000AD42D080B902D0809505D0808580A712
:101EF00002D005B0809580A12FD06051E844076ED4
:101F000080A514D0D89080EC18F0C027D8B0A02BB2
:101F100007E000EC18F0A02703E2A051406124D0B4
:101F200040C2A0F2C06B809180831ED0D89080EC1C
:101F300018F0C05F0890D8B0088000EC18F008A036
:101F4000E83EA05F03E3A05120650ED020C2A0F2BE
:101F5000C06B8091809308D080B503D080A304D05B
:101F600002D080B301D08081000001AD42D081B9A0
:101F700002D0819505D0818581A702D005B08195D9
:101F800081A12FD06151E844076E81A514D0D8906B
:101F900080EC18F0C127D8B0A12B07E000EC18F0B6
:101FA000A12703E2A151416124D041C2A1F2C16B3A
:101FB000819181831ED0D89080EC18F0C15F089089
:101FC000D8B0088000EC18F008A0E83EA15F03E359
:101FD000A15121650ED021C2A1F2C16B81918193E3
:101FE00008D081B503D081A304D002D081B301D041
:101FF0008181000002AD42D082B902D0829505D025
:10200000828582A702D005B0829582A12FD062512D
:10201000E844076E82A514D0D89080EC18F0C2274F
:10202000D8B0A22B07E000EC18F0A22703E2A251DF
:10203000426124D042C2A2F2C26B829182831ED03E
:10204000D89080EC18F0C25F0890D8B0088000ECFF
:1020500018F008A0E83EA25F03E3A25122650ED06B
:1020600022C2A2F2C26B8291829308D082B503D0C1
:1020700082A304D002D082B301D08281000003ADDC
:1020800042D083B902D0839505D0838583A702D03F
:1020900005B0839583A12FD06351E844076E83A5D3
:1020A00014D0D89080EC18F0C327D8B0A32B07E049
:1020B00000EC18F0A32703E2A351436124D043C2EC
:1020C000A3F2C36B839183831ED0D89080EC18F069
:1020D000C35F0890D8B0088000EC18F008A0E83E74
:1020E000A35F03E3A35123650ED023C2A3F2C36B06
:1020F0008391839308D083B503D083A304D002D007
:1021000083B301D08381000004AD42D084B902D0F2
:10211000849505D0848584A702D005B0849584A1D8
:102120002FD06451E844076E84A514D0D89080EC79
:1021300018F0C427D8B0A42B07E000EC18F0A427AF
:1021400003E2A451446124D044C2A4F2C46B84913C
:1021500084831ED0D89080EC18F0C45F0890D8B06B
:10216000088000EC18F008A0E83EA45F03E3A45147
:1021700024650ED024C2A4F2C46B8491849308D049
:1021800084B503D084A304D002D084B301D0848169
:10219000000005AD42D085B902D0859505D0858572
:1021A00085A702D005B0859585A12FD06551E8445B
:1021B000076E85A514D0D89080EC18F0C527D8B04C
:1021C000A52B07E000EC18F0A52703E2A551456117
:1021D00024D045C2A5F2C56B859185831ED0D890C9
:1021E00080EC18F0C55F0890D8B0088000EC18F0BB
:1021F00008A0E83EA55F03E3A55125650ED025C2E2
:10220000A5F2C56B8591859308D085B503D085A3CC
:1022100004D002D085B301D08581000006AD42D044
:1022200086B902D0869505D0868586A702D005B0EE
:10223000869586A12FD06651E844076E86A514D0F6
:10224000D89080EC18F0C627D8B0A62B07E000EC99
:1022500018F0A62703E2A651466124D046C2A6F292
:10226000C66B869186831ED0D89080EC18F0C65F2E
:102270000890D8B0088000EC18F008A0E83EA65FEF
:1022800003E3A65126650ED026C2A6F2C66B869140
:10229000869308D086B503D086A304D002D086B337
:1022A00001D08681000007AD42D087B902D0879562
:1022B00005D0878587A702D005B0879587A12FD045
:1022C0006751E844076E87A514D0D89080EC18F0C9
:1022D000C727D8B0A72B07E000EC18F0A72703E228
:1022E000A751476124D047C2A7F2C76B8791878364
:1022F0001ED0D89080EC18F0C75F0890D8B0088046
:1023000000EC18F008A0E83EA75F03E3A75127659B
:102310000ED027C2A7F2C76B8791879308D087B5E5
:1023200003D087A304D002D087B301D087810000F7
:1023300008AD42D088B902D0889505D0888588A795
:1023400002D005B0889588A12FD06851E844076E67
:1023500088A514D0D89080EC18F0C827D8B0A82B46
:1023600007E000EC18F0A82703E2A851486124D048
:1023700048C2A8F2C86B889188831ED0D89080ECA0
:1023800018F0C85F0890D8B0088000EC18F008A0DA
:10239000E83EA85F03E3A85128650ED028C2A8F242
:1023A000C86B8891889308D088B503D088A304D0DF
:1023B00002D088B301D08881000009AD42D089B92C
:1023C00002D0899505D0898589A702D005B0899565
:1023D00089A12FD06951E844076E89A514D0D890FF
:1023E00080EC18F0C927D8B0A92B07E000EC18F052
:1023F000A92703E2A951496124D049C2A9F2C96BB6
:10240000899189831ED0D89080EC18F0C95F08901C
:10241000D8B0088000EC18F008A0E83EA95F03E3FC
:10242000A95129650ED029C2A9F2C96B8991899356
:1024300008D089B503D089A304D002D089B301D0D4
:10244000898100000AAD42D08AB902D08A9505D0B0
:102450008A858AA702D005B08A958AA12FD06A51B1
:10246000E844076E8AA514D0D89080EC18F0CA27EB
:10247000D8B0AA2B07E000EC18F0AA2703E2AA5173
:102480004A6124D04AC2AAF2CA6B8A918A831ED0BA
:10249000D89080EC18F0CA5F0890D8B0088000ECA3
:1024A00018F008A0E83EAA5F03E3AA512A650ED0FF
:1024B0002AC2AAF2CA6B8A918A9308D08AB503D03D
:1024C0008AA304D002D08AB301D08A8100000BAD68
:1024D00042D08BB902D08B9505D08B858BA702D0CB
:1024E00005B08B958BA12FD06B51E844076E8BA55F
:1024F00014D0D89080EC18F0CB27D8B0AB2B07E0E5
:1025000000EC18F0AB2703E2AB514B6124D04BC277
:10251000ABF2CB6B8B918B831ED0D89080EC18F0F4
:10252000CB5F0890D8B0088000EC18F008A0E83E17
:10253000AB5F03E3AB512B650ED02BC2ABF2CB6B81
:102540008B918B9308D08BB503D08BA304D002D092
:102550008BB301D08B8100000CAD42D08CB902D07E
:102560008C9505D08C858CA702D005B08C958CA15C
:102570002FD06C51E844076E8CA514D0D89080EC15
:1025800018F0CC27D8B0AC2B07E000EC18F0AC2743
:1025900003E2AC514C6124D04CC2ACF2CC6B8C91B8
:1025A0008C831ED0D89080EC18F0CC5F0890D8B007
:1025B000088000EC18F008A0E83EAC5F03E3AC51E3
:1025C0002C650ED02CC2ACF2CC6B8C918C9308D0C5
:1025D0008CB503D08CA304D002D08CB301D08C81F5
:1025E00000000DAD42D08DB902D08D9505D08D85FE
:1025F0008DA702D005B08D958DA12FD06D51E844E7
:10260000076E8DA514D0D89080EC18F0CD27D8B0E7
:10261000AD2B07E000EC18F0AD2703E2AD514D61A2
:1026200024D04DC2ADF2CD6B8D918D831ED0D8904C
:1026300080EC18F0CD5F0890D8B0088000EC18F05E
:1026400008A0E83EAD5F03E3AD512D650ED02DC26D
:10265000ADF2CD6B8D918D9308D08DB503D08DA348
:1026600004D002D08DB301D08D8100000EAD42D0D8
:102670008EB902D08E9505D08E858EA702D005B07A
:102680008E958EA12FD06E51E844076E8EA514D082
:10269000D89080EC18F0CE27D8B0AE2B07E000EC35
:1026A00018F0AE2703E2AE514E6124D04EC2AEF216
:1026B000CE6B8E918E831ED0D89080EC18F0CE5FBA
:1026C0000890D8B0088000EC18F008A0E83EAE5F93
:1026D00003E3AE512E650ED02EC2AEF2CE6B8E91BC
:1026E0008E9308D08EB503D08EA304D002D08EB3C3
:1026F00001D08E8100000FAD42D08FB902D08F95EE
:1027000005D08F858FA702D005B08F958FA12FD0D0
:102710006F51E844076E8FA514D0D89080EC18F064
:10272000CF27D8B0AF2B07E000EC18F0AF2703E2BB
:10273000AF514F6124D04FC2AFF2CF6B8F918F83D7
:102740001ED0D89080EC18F0CF5F0890D8B00880E9
:1027500000EC18F008A0E83EAF5F03E3AF512F652F
:102760000ED02FC2AFF2CF6B8F918F9308D08FB561
:1027700003D08FA304D002D08FB301D08F8100008B
:1027800010AD42D090B902D0909505D0908590A719
:1027900002D005B0909590A12FD07051E844076EFB
:1027A00090A514D0D89080EC18F0D027D8B0B02BDA
:1027B00007E000EC18F0B02703E2B051506124D0DC
:1027C00050C2B0F2D06B909190831ED0D89080EC24
:1027D00018F0D05F0890D8B0088000EC18F008A07E
:1027E000E83EB05F03E3B05130650ED030C2B0F2C6
:1027F000D06B9091909308D090B503D090A304D063
:1028000002D090B301D09081000011AD42D091B9B7
:1028100002D0919505D0918591A702D005B09195F0
:1028200091A12FD07151E844076E91A514D0D89092
:1028300080EC18F0D127D8B0B12B07E000EC18F0ED
:10284000B12703E2B151516124D051C2B1F2D16B31
:10285000919191831ED0D89080EC18F0D15F0890B0
:10286000D8B0088000EC18F008A0E83EB15F03E3A0
:10287000B15131650ED031C2B1F2D16B91919193CA
:1028800008D091B503D091A304D002D091B301D068
:102890009181000012AD42D092B902D0929505D03C
:1028A000928592A702D005B0929592A12FD0725135
:1028B000E844076E92A514D0D89080EC18F0D22787
:1028C000D8B0B22B07E000EC18F0B22703E2B25107
:1028D000526124D052C2B2F2D26B929192831ED036
:1028E000D89080EC18F0D25F0890D8B0088000EC47
:1028F00018F008A0E83EB25F03E3B25132650ED093
:1029000032C2B2F2D26B9291929308D092B503D0B8
:1029100092A304D002D092B301D09281000013ADF3
:1029200042D093B902D0939505D0938593A702D056
:1029300005B0939593A12FD07351E844076E93A5EA
:1029400014D0D89080EC18F0D327D8B0B32B07E080
:1029500000EC18F0B32703E2B351536124D053C203
:10296000B3F2D36B939193831ED0D89080EC18F080
:10297000D35F0890D8B0088000EC18F008A0E83EBB
:10298000B35F03E3B35133650ED033C2B3F2D36BFD
:102990009391939308D093B503D093A304D002D01E
:1029A00093B301D09381000014AD42D094B902D00A
:1029B000949505D0948594A702D005B0949594A1E0
:1029C0002FD07451E844076E94A514D0D89080ECB1
:1029D00018F0D427D8B0B42B07E000EC18F0B427D7
:1029E00003E2B451546124D054C2B4F2D46B949134
:1029F00094831ED0D89080EC18F0D45F0890D8B0A3
:102A0000088000EC18F008A0E83EB45F03E3B4517E
:102A100034650ED034C2B4F2D46B9491949308D040
:102A200094B503D094A304D002D094B301D0948180
:102A3000000015AD42D095B902D0959505D0958589
:102A400095A702D005B0959595A12FD07551E84472
:102A5000076E95A514D0D89080EC18F0D527D8B083
:102A6000B52B07E000EC18F0B52703E2B55155612E
:102A700024D055C2B5F2D56B959195831ED0D890D0
:102A800080EC18F0D55F0890D8B0088000EC18F002
:102A900008A0E83EB55F03E3B55135650ED035C2F9
:102AA000B5F2D56B9591959308D095B503D095A3C4
:102AB00004D002D095B301D09581000016AD42D06C
:102AC00096B902D0969505D0968596A702D005B006
:102AD000969596A12FD07651E844076E96A514D00E
:102AE000D89080EC18F0D627D8B0B62B07E000ECD1
:102AF00018F0B62703E2B651566124D056C2B6F29A
:102B0000D66B969196831ED0D89080EC18F0D65F45
:102B10000890D8B0088000EC18F008A0E83EB65F36
:102B200003E3B65136650ED036C2B6F2D66B969137
:102B3000969308D096B503D096A304D002D096B34E
:102B400001D09681000017AD42D097B902D0979579
:102B500005D0978597A702D005B0979597A12FD05C
:102B60007751E844076E97A514D0D89080EC18F000
:102B7000D727D8B0B72B07E000EC18F0B72703E24F
:102B8000B751576124D057C2B7F2D76B979197834B
:102B90001ED0D89080EC18F0D75F0890D8B008808D
:102BA00000EC18F008A0E83EB75F03E3B7513765C3
:102BB0000ED037C2B7F2D76B9791979308D097B5DD
:102BC00003D097A304D002D097B301D0978100001F
:102BD00018AD42D098B902D0989505D0988598A79D
:102BE00002D005B0989598A12FD07851E844076E8F
:102BF00098A514D0D89080EC18F0D827D8B0B82B6E
:102C000007E000EC18F0B82703E2B851586124D06F
:102C100058C2B8F2D86B989198831ED0D89080ECA7
:102C200018F0D85F0890D8B0088000EC18F008A021
:102C3000E83EB85F03E3B85138650ED038C2B8F249
:102C4000D86B9891989308D098B503D098A304D0E6
:102C500002D098B301D09881000019AD42D099B943
:102C600002D0999505D0998599A702D005B099957C
:102C700099A12FD07951E844076E99A514D0D89026
:102C800080EC18F0D927D8B0B92B07E000EC18F089
:102C9000B92703E2B951596124D059C2B9F2D96BAD
:102CA000999199831ED0D89080EC18F0D95F089044
:102CB000D8B0088000EC18F008A0E83EB95F03E344
:102CC000B95139650ED039C2B9F2D96B999199933E
:102CD00008D099B503D099A304D002D099B301D0FC
:102CE000998100001AAD42D09AB902D09A9505D0C8
:102CF0009A859AA702D005B09A959AA12FD07A51B9
:102D0000E844076E9AA514D0D89080EC18F0DA2722
:102D1000D8B0BA2B07E000EC18F0BA2703E2BA519A
:102D20005A6124D05AC2BAF2DA6B9A919A831ED0B1
:102D3000D89080EC18F0DA5F0890D8B0088000ECEA
:102D400018F008A0E83EBA5F03E3BA513A650ED026
:102D50003AC2BAF2DA6B9A919A9308D09AB503D034
:102D60009AA304D002D09AB301D09A8100001BAD7F
:102D700042D09BB902D09B9505D09B859BA702D0E2
:102D800005B09B959BA12FD07B51E844076E9BA576
:102D900014D0D89080EC18F0DB27D8B0BB2B07E01C
:102DA00000EC18F0BB2703E2BB515B6124D05BC28F
:102DB000BBF2DB6B9B919B831ED0D89080EC18F00C
:102DC000DB5F0890D8B0088000EC18F008A0E83E5F
:102DD000BB5F03E3BB513B650ED03BC2BBF2DB6B79
:102DE0009B919B9308D09BB503D09BA304D002D0AA
:102DF0009BB301D09B8100001CAD42D09CB902D096
:102E00009C9505D09C859CA702D005B09C959CA163
:102E10002FD07C51E844076E9CA514D0D89080EC4C
:102E200018F0DC27D8B0BC2B07E000EC18F0BC276A
:102E300003E2BC515C6124D05CC2BCF2DC6B9C91AF
:102E40009C831ED0D89080EC18F0DC5F0890D8B03E
:102E5000088000EC18F008A0E83EBC5F03E3BC511A
:102E60003C650ED03CC2BCF2DC6B9C919C9308D0BC
:102E70009CB503D09CA304D002D09CB301D09C810C
:102E800000001DAD42D09DB902D09D9505D09D8515
:102E90009DA702D005B09D959DA12FD07D51E844FE
:102EA000076E9DA514D0D89080EC18F0DD27D8B01F
:102EB000BD2B07E000EC18F0BD2703E2BD515D61BA
:102EC00024D05DC2BDF2DD6B9D919D831ED0D89054
:102ED00080EC18F0DD5F0890D8B0088000EC18F0A6
:102EE00008A0E83EBD5F03E3BD513D650ED03DC285
:102EF000BDF2DD6B9D919D9308D09DB503D09DA340
:0E2F000004D002D09DB301D09D8100001200CC
:10300000F9500750F9262A0C040C020C010C010C93
:10301000000C000C000C000C000C000C000C000C50
:10302000000C000C000C000C000C000C000C000C40
:10303000000C000C000C000C000C000C000C000C30
:10304000000C000C000C000C000C000C000C000C20
:10305000000C000C000C000C000C000C000C000C10
:10306000000C000C000C000C000C000C000C000C00
:10307000000C000C000C000C000C000C000C000CF0
:10308000000C000C000C000C000C000C000C000CE0
:10309000000C000C000C000C000C000C000C000CD0
:1030A000000C000C000C000C000C000C000C000CC0
:1030B000000C000C000C000C000C000C000C000CB0
:1030C000000C000C000C000C000C000C000C2A0C76
:1030D0002A0C150C0E0C0A0C080C070C060C050C1F
:0430E000040C040CCC
:10310000F9500750F926AA0C440C220C6C0C110C37
:10311000DA0CB60C9C0C880C790C6D0C630C5B0CF7
:10312000540C4E0C480C440C400C3C0C390C360C26
:10313000340C310C2F0C2D0C2B0C2A0C280C270CCA
:10314000250C240C230C220C210C200C1F0C1E0C13
:103150001D0C1C0C1C0C1B0C1A0C1A0C190C180C3A
:10316000180C170C170C160C160C150C150C150C4E
:10317000140C140C130C130C130C120C120C120C58
:10318000120C120C120C120C120C120C120C120C4F
:10319000120C120C120C120C120C120C120C120C3F
:1031A000120C120C120C120C120C120C120C120C2F
:1031B000120C120C120C120C120C120C120C120C1F
:1031C000120C120C120C120C120C120C120CAA0C77
:1031D000AA0C550C380CAA0C880C1C0C180C550C9D
:1031E000BD0C440C040E196E020100A177EF1BF018
:1031F0007DA005D080B354EF1AF02AEF19F080A219
:1032000007EF19F060A10AEF19F034EF1AF060A18E
:1032100034EF1AF0A051D8B477EF1BF0A007A051FB
:10322000400AD8A477EF1BF0809304EE00F0000E64
:10323000E926EF500A6E04EE20F0000EE926EF506A
:103240000B6EB00E096E010E00631DD0100E0B1236
:10325000E3EC01F0205302E177EF1BF0B20E096EB0
:103260002051E804F00BE8380B6E2051E8040F0BF6
:10327000E83840110A6E0A420A9E40B10B8AE3EC1C
:1032800001F077EF1BF0030E00630CD080B706D07F
:10329000200E0B12E3EC01F077EF1BF0E3EC01F0F2
:1032A00077EF1BF0050E006306D0200E0B12E3EC47
:1032B00001F077EF1BF0070E006304D0E3EC01F0A0
:1032C00077EF1BF0210E006377EF1BF004EE00F0A8
:1032D000000EE926EF500A6E04EE20F0000EE926FB
:1032E000EFA804D0EF502F0B0B6EE3EC01F004EECF
:1032F00040F0000EE926EF500A6E04EE60F0000E7A
:10330000E926EFA804D0EF502F0B0B6EE3EC01F091
:1033100004EE80F0000EE926EF500A6E04EEA0F0F5
:10332000000EE926EFA804D0EF502F0B0B6EE3EC54
:1033300001F004EEC0F0000EE926EF500A6E04EE34
:10334000E0F0000EE926EFA804D0EF502F0B0B6E33
:10335000E3EC01F005EE00F0000EE926EF500A6EF6
:1033600005EE20F0000EE926EFA804D0EF502F0B59
:103370000B6EE3EC01F005EE40F0000EE926EF5095
:103380000A6E05EE60F0000EE926EFA804D0EF50BB
:103390002F0B0B6EE3EC01F005EE80F0000EE9263A
:1033A000EF500A6E05EEA0F0000EE926EFA804D05B
:1033B000EF502F0B0B6EE3EC01F005EEC0F0000EAA
:1033C000E926EF500A6E05EEE0F0000EE926EFA8C0
:1033D00004D0EF502F0B0B6EE3EC01F006EE00F083
:1033E000000EE926EF500A6E06EE20F0000EE926E8
:1033F000EFA804D0EF502F0B0B6EE3EC01F006EEBC
:1034000040F0000EE926EF500A6E06EE60F0000E66
:10341000E926EFA804D0EF502F0B0B6EE3EC01F080
:1034200006EE80F0000EE926EF500A6E06EEA0F0E0
:10343000000EE926EFA804D0EF502F0B0B6EE3EC43
:1034400001F006EEC0F0000EE926EF500A6E06EE1F
:10345000E0F0000EE926EFA804D0EF502F0B0B6E22
:10346000E3EC01F077EF1BF0A03F03D0A00777EF6C
:103470001BF0A051C00AD8A477EF1BF0808304EEA4
:1034800000F0000EE926EF500A6E04EE20F0000E68
:10349000E926EF500B6EB00E096E010E00631ED0D0
:1034A000300E0B12E3EC01F0205302E177EF1BF03A
:1034B000B20E096E2051E804F00BE8380B6E205173
:1034C000E8040F0BE83840110A6E0A420A9E40B128
:1034D0000B8A0B88E3EC01F077EF1BF0030E00631F
:1034E00010D080B708D0300E0B12B00E096EE3EC8E
:1034F00001F077EF1BF0100E0B12E3EC01F077EF09
:103500001BF0050E00630FD0300E0B12E3EC01F040
:1035100060A177EF1BF0830E096E020E196EE3ECCB
:1035200001F077EF1BF0070E00630FD0100E0B12A7
:10353000E3EC01F060A177EF1BF0820E096E020E42
:10354000196EE3EC01F077EF1BF0210E006377EFCB
:103550001BF004EE00F0000EE926EF500A6E04EEB8
:1035600020F0000EE926EFA804D0EF503F0B0B6EC1
:10357000E3EC01F004EE40F0000EE926EF500A6E95
:1035800004EE60F0000EE926EFA804D0EF503F0BE8
:103590000B6EE3EC01F004EE80F0000EE926EF5034
:1035A0000A6E04EEA0F0000EE926EFA804D0EF505A
:1035B0003F0B0B6EE3EC01F004EEC0F0000EE926C9
:1035C000EF500A6E04EEE0F0000EE926EFA804D0FA
:1035D000EF503F0B0B6EE3EC01F005EE00F0000E38
:1035E000E926EF500A6E05EE20F0000EE926EFA85E
:1035F00004D0EF503F0B0B6EE3EC01F005EE40F012
:10360000000EE926EF500A6E05EE60F0000EE92686
:10361000EFA804D0EF503F0B0B6EE3EC01F005EE8A
:1036200080F0000EE926EF500A6E05EEA0F0000EC5
:10363000E926EFA804D0EF503F0B0B6EE3EC01F04E
:1036400005EEC0F0000EE926EF500A6E05EEE0F040
:10365000000EE926EFA804D0EF503F0B0B6EE3EC11
:1036600001F006EE00F0000EE926EF500A6E06EEBD
:1036700020F0000EE926EFA804D0EF503F0B0B6EB0
:10368000E3EC01F006EE40F0000EE926EF500A6E82
:1036900006EE60F0000EE926EFA804D0EF503F0BD5
:1036A0000B6EE3EC01F006EE80F0000EE926EF5021
:1036B0000A6E06EEA0F0000EE926EFA804D0EF5047
:1036C0003F0B0B6EE3EC01F006EEC0F0000EE926B6
:1036D000EF500A6E06EEE0F0000EE926EFA804D0E7
:1036E000EF503F0B0B6EE3EC01F077EF1BF00000A7
:1036F00001A1FAEF1DF07DA005D081B3D7EF1CF03A
:10370000ADEF1BF080A48AEF1BF061A18DEF1BF0E1
:10371000B7EF1CF061A1B7EF1CF0A151D8B4FAEFDC
:103720001DF0A107A151400AD8A4FAEF1DF0819322
:1037300004EE00F0010EE926EF500A6E04EE20F0D0
:10374000010EE926EF500B6EB00E096E010E0163FB
:103750001DD0100E0B12E3EC01F0215302E1FAEF41
:103760001DF0B20E096E2151E804F00BE8380B6E23
:103770002151E8040F0BE83841110A6E0A420A9EF3
:1037800041B10B8AE3EC01F0FAEF1DF0030E016387
:103790000CD081B706D0200E0B12E3EC01F0FAEF4B
:1037A0001DF0E3EC01F0FAEF1DF0050E016306D009
:1037B000200E0B12E3EC01F0FAEF1DF0070E01638F
:1037C00004D0E3EC01F0FAEF1DF0210E0163FAEFF3
:1037D0001DF004EE00F0010EE926EF500A6E04EE33
:1037E00020F0010EE926EFA804D0EF502F0B0B6E4E
:1037F000E3EC01F004EE40F0010EE926EF500A6E12
:1038000004EE60F0010EE926EFA804D0EF502F0B74
:103810000B6EE3EC01F004EE80F0010EE926EF50B0
:103820000A6E04EEA0F0010EE926EFA804D0EF50D6
:103830002F0B0B6EE3EC01F004EEC0F0010EE92655
:10384000EF500A6E04EEE0F0010EE926EFA804D076
:10385000EF502F0B0B6EE3EC01F005EE00F0010EC4
:10386000E926EF500A6E05EE20F0010EE926EFA8DA
:1038700004D0EF502F0B0B6EE3EC01F005EE40F09F
:10388000010EE926EF500A6E05EE60F0010EE92602
:10389000EFA804D0EF502F0B0B6EE3EC01F005EE18
:1038A00080F0010EE926EF500A6E05EEA0F0010E41
:1038B000E926EFA804D0EF502F0B0B6EE3EC01F0DC
:1038C00005EEC0F0010EE926EF500A6E05EEE0F0BD
:1038D000010EE926EFA804D0EF502F0B0B6EE3EC9E
:1038E00001F006EE00F0010EE926EF500A6E06EE3A
:1038F00020F0010EE926EFA804D0EF502F0B0B6E3D
:10390000E3EC01F006EE40F0010EE926EF500A6EFE
:1039100006EE60F0010EE926EFA804D0EF502F0B61
:103920000B6EE3EC01F006EE80F0010EE926EF509D
:103930000A6E06EEA0F0010EE926EFA804D0EF50C3
:103940002F0B0B6EE3EC01F006EEC0F0010EE92642
:10395000EF500A6E06EEE0F0010EE926EFA804D063
:10396000EF502F0B0B6EE3EC01F0FAEF1DF0A13FCF
:1039700003D0A107FAEF1DF0A151C00AD8A4FAEFB5
:103980001DF0818304EE00F0010EE926EF500A6E6F
:1039900004EE20F0010EE926EF500B6EB00E096E1A
:1039A000010E01631ED0300E0B12E3EC01F0215327
:1039B00002E1FAEF1DF0B20E096E2151E804F00B9E
:1039C000E8380B6E2151E8040F0BE83841110A6EFC
:1039D0000A420A9E41B10B8A0B88E3EC01F0FAEF30
:1039E0001DF0030E016310D081B708D0300E0B120A
:1039F000B00E096EE3EC01F0FAEF1DF0100E0B12A1
:103A0000E3EC01F0FAEF1DF0050E01630FD0300E6C
:103A10000B12E3EC01F061A1FAEF1DF0830E096EC9
:103A2000020E196EE3EC01F0FAEF1DF0070E0163D0
:103A30000FD0100E0B12E3EC01F061A1FAEF1DF0B4
:103A4000820E096E020E196EE3EC01F0FAEF1DF022
:103A5000210E0163FAEF1DF004EE00F0010EE926DD
:103A6000EF500A6E04EE20F0010EE926EFA804D014
:103A7000EF503F0B0B6EE3EC01F004EE40F0010E53
:103A8000E926EF500A6E04EE60F0010EE926EFA879
:103A900004D0EF503F0B0B6EE3EC01F004EE80F02E
:103AA000010EE926EF500A6E04EEA0F0010EE926A1
:103AB000EFA804D0EF503F0B0B6EE3EC01F004EEE7
:103AC000C0F0010EE926EF500A6E04EEE0F0010EA0
:103AD000E926EFA804D0EF503F0B0B6EE3EC01F0AA
:103AE00005EE00F0010EE926EF500A6E05EE20F01B
:103AF000010EE926EFA804D0EF503F0B0B6EE3EC6C
:103B000001F005EE40F0010EE926EF500A6E05EED9
:103B100060F0010EE926EFA804D0EF503F0B0B6ECA
:103B2000E3EC01F005EE80F0010EE926EF500A6E9D
:103B300005EEA0F0010EE926EFA804D0EF503F0BF0
:103B40000B6EE3EC01F005EEC0F0010EE926EF503C
:103B50000A6E05EEE0F0010EE926EFA804D0EF5062
:103B60003F0B0B6EE3EC01F006EE00F0010EE926D0
:103B7000EF500A6E06EE20F0010EE926EFA804D001
:103B8000EF503F0B0B6EE3EC01F006EE40F0010E40
:103B9000E926EF500A6E06EE60F0010EE926EFA866
:103BA00004D0EF503F0B0B6EE3EC01F006EE80F01B
:103BB000010EE926EF500A6E06EEA0F0010EE9268E
:103BC000EFA804D0EF503F0B0B6EE3EC01F006EED4
:103BD000C0F0010EE926EF500A6E06EEE0F0010E8D
:103BE000E926EFA804D0EF503F0B0B6EE3EC01F099
:103BF000FAEF1DF0000002A17DEF20F07DA005D0BE
:103C000082B35AEF1FF030EF1EF080AA0DEF1EF0C6
:103C100062A110EF1EF03AEF1FF062A13AEF1FF021
:103C2000A251D8B47DEF20F0A207A251400AD8A437
:103C30007DEF20F0829304EE00F0020EE926EF50B3
:103C40000A6E04EE20F0020EE926EF500B6EB00E65
:103C5000096E010E02631DD0100E0B12E3EC01F091
:103C6000225302E17DEF20F0B20E096E2251E804EA
:103C7000F00BE8380B6E2251E8040F0BE8384211C4
:103C80000A6E0A420A9E42B10B8AE3EC01F07DEF14
:103C900020F0030E02630CD082B706D0200E0B1268
:103CA000E3EC01F07DEF20F0E3EC01F07DEF20F09C
:103CB000050E026306D0200E0B12E3EC01F07DEF3F
:103CC00020F0070E026304D0E3EC01F07DEF20F05A
:103CD000210E02637DEF20F004EE00F0020EE926D3
:103CE000EF500A6E04EE20F0020EE926EFA804D091
:103CF000EF502F0B0B6EE3EC01F004EE40F0020EE0
:103D0000E926EF500A6E04EE60F0020EE926EFA8F5
:103D100004D0EF502F0B0B6EE3EC01F004EE80F0BB
:103D2000020EE926EF500A6E04EEA0F0020EE9261C
:103D3000EFA804D0EF502F0B0B6EE3EC01F004EE74
:103D4000C0F0020EE926EF500A6E04EEE0F0020E1B
:103D5000E926EFA804D0EF502F0B0B6EE3EC01F037
:103D600005EE00F0020EE926EF500A6E05EE20F097
:103D7000020EE926EFA804D0EF502F0B0B6EE3ECF8
:103D800001F005EE40F0020EE926EF500A6E05EE56
:103D900060F0020EE926EFA804D0EF502F0B0B6E57
:103DA000E3EC01F005EE80F0020EE926EF500A6E1A
:103DB00005EEA0F0020EE926EFA804D0EF502F0B7D
:103DC0000B6EE3EC01F005EEC0F0020EE926EF50B9
:103DD0000A6E05EEE0F0020EE926EFA804D0EF50DF
:103DE0002F0B0B6EE3EC01F006EE00F0020EE9265D
:103DF000EF500A6E06EE20F0020EE926EFA804D07E
:103E0000EF502F0B0B6EE3EC01F006EE40F0020ECC
:103E1000E926EF500A6E06EE60F0020EE926EFA8E2
:103E200004D0EF502F0B0B6EE3EC01F006EE80F0A8
:103E3000020EE926EF500A6E06EEA0F0020EE92609
:103E4000EFA804D0EF502F0B0B6EE3EC01F006EE61
:103E5000C0F0020EE926EF500A6E06EEE0F0020E08
:103E6000E926EFA804D0EF502F0B0B6EE3EC01F026
:103E70007DEF20F0A23F03D0A2077DEF20F0A251FA
:103E8000C00AD8A47DEF20F0828304EE00F0020E79
:103E9000E926EF500A6E04EE20F0020EE926EF50FC
:103EA0000B6EB00E096E010E02631ED0300E0B12A7
:103EB000E3EC01F0225302E17DEF20F0B20E096E37
:103EC0002251E804F00BE8380B6E2251E8040F0B86
:103ED000E83842110A6E0A420A9E42B10B8A0B88E8
:103EE000E3EC01F07DEF20F0030E026310D082B707
:103EF00008D0300E0B12B00E096EE3EC01F07DEF2E
:103F000020F0100E0B12E3EC01F07DEF20F0050E17
:103F100002630FD0300E0B12E3EC01F062A17DEFD3
:103F200020F0830E096E020E196EE3EC01F07DEFB6
:103F300020F0070E02630FD0100E0B12E3EC01F01D
:103F400062A17DEF20F0820E096E020E196EE3EC85
:103F500001F07DEF20F0210E02637DEF20F004EEF2
:103F600000F0020EE926EF500A6E04EE20F0020E79
:103F7000E926EFA804D0EF503F0B0B6EE3EC01F005
:103F800004EE40F0020EE926EF500A6E04EE60F0F7
:103F9000020EE926EFA804D0EF503F0B0B6EE3ECC6
:103FA00001F004EE80F0020EE926EF500A6E04EEF6
:103FB000A0F0020EE926EFA804D0EF503F0B0B6EE5
:103FC000E3EC01F004EEC0F0020EE926EF500A6EB9
:103FD00004EEE0F0020EE926EFA804D0EF503F0B0C
:103FE0000B6EE3EC01F005EE00F0020EE926EF5057
:103FF0000A6E05EE20F0020EE926EFA804D0EF507D
:104000003F0B0B6EE3EC01F005EE40F0020EE926EB
:10401000EF500A6E05EE60F0020EE926EFA804D01C
:10402000EF503F0B0B6EE3EC01F005EE80F0020E5B
:10403000E926EF500A6E05EEA0F0020EE926EFA881
:1040400004D0EF503F0B0B6EE3EC01F005EEC0F037
:10405000020EE926EF500A6E05EEE0F0020EE926A8
:10406000EFA804D0EF503F0B0B6EE3EC01F006EE2F
:1040700000F0020EE926EF500A6E06EE20F0020E66
:10408000E926EFA804D0EF503F0B0B6EE3EC01F0F4
:1040900006EE40F0020EE926EF500A6E06EE60F0E2
:1040A000020EE926EFA804D0EF503F0B0B6EE3ECB5
:1040B00001F006EE80F0020EE926EF500A6E06EEE1
:1040C000A0F0020EE926EFA804D0EF503F0B0B6ED4
:1040D000E3EC01F006EEC0F0020EE926EF500A6EA6
:1040E00006EEE0F0020EE926EFA804D0EF503F0BF9
:1040F0000B6EE3EC01F07DEF20F0000003A100EF78
:1041000023F07DA005D083B3DDEF21F0B3EF20F0E5
:1041100084A090EF20F063A193EF20F0BDEF21F099
:1041200063A1BDEF21F0A351D8B400EF23F0A307A2
:10413000A351400AD8A400EF23F0839304EE00F0CB
:10414000030EE926EF500A6E04EE20F0030EE92676
:10415000EF500B6EB00E096E010E03631DD0100EF2
:104160000B12E3EC01F0235302E100EF23F0B20E57
:10417000096E2351E804F00BE8380B6E2351E80474
:104180000F0BE83843110A6E0A420A9E43B10B8AAC
:10419000E3EC01F000EF23F0030E03630CD083B7D0
:1041A00006D0200E0B12E3EC01F000EF23F0E3EC5D
:1041B00001F000EF23F0050E036306D0200E0B1272
:1041C000E3EC01F000EF23F0070E036304D0E3EC0F
:1041D00001F000EF23F0210E036300EF23F004EE63
:1041E00000F0030EE926EF500A6E04EE20F0030EF5
:1041F000E926EFA804D0EF502F0B0B6EE3EC01F093
:1042000004EE40F0030EE926EF500A6E04EE60F073
:10421000030EE926EFA804D0EF502F0B0B6EE3EC52
:1042200001F004EE80F0030EE926EF500A6E04EE72
:10423000A0F0030EE926EFA804D0EF502F0B0B6E71
:10424000E3EC01F004EEC0F0030EE926EF500A6E35
:1042500004EEE0F0030EE926EFA804D0EF502F0B98
:104260000B6EE3EC01F005EE00F0030EE926EF50D3
:104270000A6E05EE20F0030EE926EFA804D0EF50F9
:104280002F0B0B6EE3EC01F005EE40F0030EE92678
:10429000EF500A6E05EE60F0030EE926EFA804D099
:1042A000EF502F0B0B6EE3EC01F005EE80F0030EE8
:1042B000E926EF500A6E05EEA0F0030EE926EFA8FE
:1042C00004D0EF502F0B0B6EE3EC01F005EEC0F0C5
:1042D000030EE926EF500A6E05EEE0F0030EE92624
:1042E000EFA804D0EF502F0B0B6EE3EC01F006EEBD
:1042F00000F0030EE926EF500A6E06EE20F0030EE2
:10430000E926EFA804D0EF502F0B0B6EE3EC01F081
:1043100006EE40F0030EE926EF500A6E06EE60F05E
:10432000030EE926EFA804D0EF502F0B0B6EE3EC41
:1043300001F006EE80F0030EE926EF500A6E06EE5D
:10434000A0F0030EE926EFA804D0EF502F0B0B6E60
:10435000E3EC01F006EEC0F0030EE926EF500A6E22
:1043600006EEE0F0030EE926EFA804D0EF502F0B85
:104370000B6EE3EC01F000EF23F0A33F03D0A307A3
:1043800000EF23F0A351C00AD8A400EF23F08383E9
:1043900004EE00F0030EE926EF500A6E04EE20F062
:1043A000030EE926EF500B6EB00E096E010E03638B
:1043B0001ED0300E0B12E3EC01F0235302E100EFAC
:1043C00023F0B20E096E2351E804F00BE8380B6EAF
:1043D0002351E8040F0BE83843110A6E0A420A9E83
:1043E00043B10B8A0B88E3EC01F000EF23F0030EDE
:1043F000036310D083B708D0300E0B12B00E096ED5
:10440000E3EC01F000EF23F0100E0B12E3EC01F0EF
:1044100000EF23F0050E03630FD0300E0B12E3EC18
:1044200001F063A100EF23F0830E096E020E196EF6
:10443000E3EC01F000EF23F0070E03630FD0100E42
:104440000B12E3EC01F063A100EF23F0820E096E82
:10445000020E196EE3EC01F000EF23F0210E03636E
:1044600000EF23F004EE00F0030EE926EF500A6E91
:1044700004EE20F0030EE926EFA804D0EF503F0B26
:104480000B6EE3EC01F004EE40F0030EE926EF5072
:104490000A6E04EE60F0030EE926EFA804D0EF5098
:1044A0003F0B0B6EE3EC01F004EE80F0030EE92607
:1044B000EF500A6E04EEA0F0030EE926EFA804D038
:1044C000EF503F0B0B6EE3EC01F004EEC0F0030E77
:1044D000E926EF500A6E04EEE0F0030EE926EFA89D
:1044E00004D0EF503F0B0B6EE3EC01F005EE00F053
:1044F000030EE926EF500A6E05EE20F0030EE926C2
:10450000EFA804D0EF503F0B0B6EE3EC01F005EE8B
:1045100040F0030EE926EF500A6E05EE60F0030E40
:10452000E926EFA804D0EF503F0B0B6EE3EC01F04F
:1045300005EE80F0030EE926EF500A6E05EEA0F0BE
:10454000030EE926EFA804D0EF503F0B0B6EE3EC0F
:1045500001F005EEC0F0030EE926EF500A6E05EEFD
:10456000E0F0030EE926EFA804D0EF503F0B0B6EEE
:10457000E3EC01F006EE00F0030EE926EF500A6EC0
:1045800006EE20F0030EE926EFA804D0EF503F0B13
:104590000B6EE3EC01F006EE40F0030EE926EF505F
:1045A0000A6E06EE60F0030EE926EFA804D0EF5085
:1045B0003F0B0B6EE3EC01F006EE80F0030EE926F4
:1045C000EF500A6E06EEA0F0030EE926EFA804D025
:1045D000EF503F0B0B6EE3EC01F006EEC0F0030E64
:1045E000E926EF500A6E06EEE0F0030EE926EFA88A
:1045F00004D0EF503F0B0B6EE3EC01F000EF23F023
:10460000000004A183EF25F07DA005D084B360EF06
:1046100024F036EF23F084A213EF23F064A116EF09
:1046200023F040EF24F064A140EF24F0A451D8B46B
:1046300083EF25F0A407A451400AD8A483EF25F006
:10464000849304EE00F0040EE926EF500A6E04EEA7
:1046500020F0040EE926EF500B6EB00E096E010E2D
:1046600004631DD0100E0B12E3EC01F0245302E1A1
:1046700083EF25F0B20E096E2451E804F00BE83800
:104680000B6E2451E8040F0BE83844110A6E0A42FD
:104690000A9E44B10B8AE3EC01F083EF25F0030E90
:1046A00004630CD084B706D0200E0B12E3EC01F0AB
:1046B00083EF25F0E3EC01F083EF25F0050E0463B2
:1046C00006D0200E0B12E3EC01F083EF25F0070E6D
:1046D000046304D0E3EC01F083EF25F0210E0463C2
:1046E00083EF25F004EE00F0040EE926EF500A6E89
:1046F00004EE20F0040EE926EFA804D0EF502F0BB3
:104700000B6EE3EC01F004EE40F0040EE926EF50EE
:104710000A6E04EE60F0040EE926EFA804D0EF5014
:104720002F0B0B6EE3EC01F004EE80F0040EE92693
:10473000EF500A6E04EEA0F0040EE926EFA804D0B4
:10474000EF502F0B0B6EE3EC01F004EEC0F0040E03
:10475000E926EF500A6E04EEE0F0040EE926EFA819
:1047600004D0EF502F0B0B6EE3EC01F005EE00F0E0
:10477000040EE926EF500A6E05EE20F0040EE9263D
:10478000EFA804D0EF502F0B0B6EE3EC01F005EE19
:1047900040F0040EE926EF500A6E05EE60F0040EBC
:1047A000E926EFA804D0EF502F0B0B6EE3EC01F0DD
:1047B00005EE80F0040EE926EF500A6E05EEA0F03B
:1047C000040EE926EFA804D0EF502F0B0B6EE3EC9C
:1047D00001F005EEC0F0040EE926EF500A6E05EE7A
:1047E000E0F0040EE926EFA804D0EF502F0B0B6E7B
:1047F000E3EC01F006EE00F0040EE926EF500A6E3D
:1048000006EE20F0040EE926EFA804D0EF502F0B9F
:104810000B6EE3EC01F006EE40F0040EE926EF50DB
:104820000A6E06EE60F0040EE926EFA804D0EF5001
:104830002F0B0B6EE3EC01F006EE80F0040EE92680
:10484000EF500A6E06EEA0F0040EE926EFA804D0A1
:10485000EF502F0B0B6EE3EC01F006EEC0F0040EF0
:10486000E926EF500A6E06EEE0F0040EE926EFA806
:1048700004D0EF502F0B0B6EE3EC01F083EF25F02B
:10488000A43F03D0A40783EF25F0A451C00AD8A405
:1048900083EF25F0848304EE00F0040EE926EF5048
:1048A0000A6E04EE20F0040EE926EF500B6EB00EF7
:1048B000096E010E04631ED0300E0B12E3EC01F002
:1048C000245302E183EF25F0B20E096E2451E8046F
:1048D000F00BE8380B6E2451E8040F0BE838441154
:1048E0000A6E0A420A9E44B10B8A0B88E3EC01F07F
:1048F00083EF25F0030E046310D084B708D0300E88
:104900000B12B00E096EE3EC01F083EF25F0100EF0
:104910000B12E3EC01F083EF25F0050E04630FD0DA
:10492000300E0B12E3EC01F064A183EF25F0830E4F
:10493000096E020E196EE3EC01F083EF25F0070E0D
:1049400004630FD0100E0B12E3EC01F064A183EFAF
:1049500025F0820E096E020E196EE3EC01F083EF72
:1049600025F0210E046383EF25F004EE00F0040E21
:10497000E926EF500A6E04EE20F0040EE926EFA8B7
:1049800004D0EF503F0B0B6EE3EC01F004EE40F06F
:10499000040EE926EF500A6E04EE60F0040EE926DC
:1049A000EFA804D0EF503F0B0B6EE3EC01F004EEE8
:1049B00080F0040EE926EF500A6E04EEA0F0040E1B
:1049C000E926EFA804D0EF503F0B0B6EE3EC01F0AB
:1049D00004EEC0F0040EE926EF500A6E04EEE0F09B
:1049E000040EE926EFA804D0EF503F0B0B6EE3EC6A
:1049F00001F005EE00F0040EE926EF500A6E05EE18
:104A000020F0040EE926EFA804D0EF503F0B0B6E08
:104A1000E3EC01F005EE40F0040EE926EF500A6EDB
:104A200005EE60F0040EE926EFA804D0EF503F0B2E
:104A30000B6EE3EC01F005EE80F0040EE926EF507A
:104A40000A6E05EEA0F0040EE926EFA804D0EF50A0
:104A50003F0B0B6EE3EC01F005EEC0F0040EE9260F
:104A6000EF500A6E05EEE0F0040EE926EFA804D040
:104A7000EF503F0B0B6EE3EC01F006EE00F0040E7E
:104A8000E926EF500A6E06EE20F0040EE926EFA8A4
:104A900004D0EF503F0B0B6EE3EC01F006EE40F05C
:104AA000040EE926EF500A6E06EE60F0040EE926C9
:104AB000EFA804D0EF503F0B0B6EE3EC01F006EED5
:104AC00080F0040EE926EF500A6E06EEA0F0040E08
:104AD000E926EFA804D0EF503F0B0B6EE3EC01F09A
:104AE00006EEC0F0040EE926EF500A6E06EEE0F086
:104AF000040EE926EFA804D0EF503F0B0B6EE3EC59
:104B000001F083EF25F0000005A106EF28F07DA05D
:104B100005D085B3E3EF26F0B9EF25F084A496EF36
:104B200025F065A199EF25F0C3EF26F065A1C3EF4D
:104B300026F0A551D8B406EF28F0A507A551400AE4
:104B4000D8A406EF28F0859304EE00F0050EE926C0
:104B5000EF500A6E04EE20F0050EE926EF500B6EC2
:104B6000B00E096E010E05631DD0100E0B12E3ECA2
:104B700001F0255302E106EF28F0B20E096E25512F
:104B8000E804F00BE8380B6E2551E8040F0BE83809
:104B900045110A6E0A420A9E45B10B8AE3EC01F008
:104BA00006EF28F0030E05630CD085B706D0200E63
:104BB0000B12E3EC01F006EF28F0E3EC01F006EF56
:104BC00028F0050E056306D0200E0B12E3EC01F071
:104BD00006EF28F0070E056304D0E3EC01F006EFC2
:104BE00028F0210E056306EF28F004EE00F0050E14
:104BF000E926EF500A6E04EE20F0050EE926EFA834
:104C000004D0EF502F0B0B6EE3EC01F004EE40F0FC
:104C1000050EE926EF500A6E04EE60F0050EE92657
:104C2000EFA804D0EF502F0B0B6EE3EC01F004EE75
:104C300080F0050EE926EF500A6E04EEA0F0050E96
:104C4000E926EFA804D0EF502F0B0B6EE3EC01F038
:104C500004EEC0F0050EE926EF500A6E04EEE0F017
:104C6000050EE926EFA804D0EF502F0B0B6EE3ECF6
:104C700001F005EE00F0050EE926EF500A6E05EE94
:104C800020F0050EE926EFA804D0EF502F0B0B6E95
:104C9000E3EC01F005EE40F0050EE926EF500A6E58
:104CA00005EE60F0050EE926EFA804D0EF502F0BBB
:104CB0000B6EE3EC01F005EE80F0050EE926EF50F7
:104CC0000A6E05EEA0F0050EE926EFA804D0EF501D
:104CD0002F0B0B6EE3EC01F005EEC0F0050EE9269C
:104CE000EF500A6E05EEE0F0050EE926EFA804D0BD
:104CF000EF502F0B0B6EE3EC01F006EE00F0050E0B
:104D0000E926EF500A6E06EE20F0050EE926EFA820
:104D100004D0EF502F0B0B6EE3EC01F006EE40F0E9
:104D2000050EE926EF500A6E06EE60F0050EE92644
:104D3000EFA804D0EF502F0B0B6EE3EC01F006EE62
:104D400080F0050EE926EF500A6E06EEA0F0050E83
:104D5000E926EFA804D0EF502F0B0B6EE3EC01F027
:104D600006EEC0F0050EE926EF500A6E06EEE0F002
:104D7000050EE926EFA804D0EF502F0B0B6EE3ECE5
:104D800001F006EF28F0A53F03D0A50706EF28F0B5
:104D9000A551C00AD8A406EF28F0858304EE00F0E0
:104DA000050EE926EF500A6E04EE20F0050EE92606
:104DB000EF500B6EB00E096E010E05631ED0300E63
:104DC0000B12E3EC01F0255302E106EF28F0B20EDE
:104DD000096E2551E804F00BE8380B6E2551E80404
:104DE0000F0BE83845110A6E0A420A9E45B10B8A3C
:104DF0000B88E3EC01F006EF28F0030E056310D0FA
:104E000085B708D0300E0B12B00E096EE3EC01F03E
:104E100006EF28F0100E0B12E3EC01F006EF28F07D
:104E2000050E05630FD0300E0B12E3EC01F065A107
:104E300006EF28F0830E096E020E196EE3EC01F006
:104E400006EF28F0070E05630FD0100E0B12E3ECEF
:104E500001F065A106EF28F0820E096E020E196EB0
:104E6000E3EC01F006EF28F0210E056306EF28F0D1
:104E700004EE00F0050EE926EF500A6E04EE20F075
:104E8000050EE926EFA804D0EF503F0B0B6EE3ECC4
:104E900001F004EE40F0050EE926EF500A6E04EE34
:104EA00060F0050EE926EFA804D0EF503F0B0B6E23
:104EB000E3EC01F004EE80F0050EE926EF500A6EF7
:104EC00004EEA0F0050EE926EFA804D0EF503F0B4A
:104ED0000B6EE3EC01F004EEC0F0050EE926EF5096
:104EE0000A6E04EEE0F0050EE926EFA804D0EF50BC
:104EF0003F0B0B6EE3EC01F005EE00F0050EE9262A
:104F0000EF500A6E05EE20F0050EE926EFA804D05A
:104F1000EF503F0B0B6EE3EC01F005EE40F0050E99
:104F2000E926EF500A6E05EE60F0050EE926EFA8BF
:104F300004D0EF503F0B0B6EE3EC01F005EE80F078
:104F4000050EE926EF500A6E05EEA0F0050EE926E3
:104F5000EFA804D0EF503F0B0B6EE3EC01F005EE31
:104F6000C0F0050EE926EF500A6E05EEE0F0050EE2
:104F7000E926EFA804D0EF503F0B0B6EE3EC01F0F5
:104F800006EE00F0050EE926EF500A6E06EE20F060
:104F9000050EE926EFA804D0EF503F0B0B6EE3ECB3
:104FA00001F006EE40F0050EE926EF500A6E06EE1F
:104FB00060F0050EE926EFA804D0EF503F0B0B6E12
:104FC000E3EC01F006EE80F0050EE926EF500A6EE4
:104FD00006EEA0F0050EE926EFA804D0EF503F0B37
:104FE0000B6EE3EC01F006EEC0F0050EE926EF5083
:104FF0000A6E06EEE0F0050EE926EFA804D0EF50A9
:105000003F0B0B6EE3EC01F006EF28F0000006A169
:1050100089EF2AF07DA005D086B366EF29F03CEF3A
:1050200028F080AE19EF28F066A11CEF28F046EFBB
:1050300029F066A146EF29F0A651D8B489EF2AF0ED
:10504000A607A651400AD8A489EF2AF0869304EE59
:1050500000F0060EE926EF500A6E04EE20F0060E70
:10506000E926EF500B6EB00E096E010E06631DD0DF
:10507000100E0B12E3EC01F0265302E189EF2AF047
:10508000B20E096E2651E804F00BE8380B6E26517B
:10509000E8040F0BE83846110A6E0A420A9E46B130
:1050A0000B8AE3EC01F089EF2AF0030E06630CD0C3
:1050B00086B706D0200E0B12E3EC01F089EF2AF040
:1050C000E3EC01F089EF2AF0050E066306D0200E0E
:1050D0000B12E3EC01F089EF2AF0070E066304D00F
:1050E000E3EC01F089EF2AF0210E066389EF2AF044
:1050F00004EE00F0060EE926EF500A6E04EE20F0F2
:10510000060EE926EFA804D0EF502F0B0B6EE3EC50
:1051100001F004EE40F0060EE926EF500A6E04EEB0
:1051200060F0060EE926EFA804D0EF502F0B0B6EAF
:10513000E3EC01F004EE80F0060EE926EF500A6E73
:1051400004EEA0F0060EE926EFA804D0EF502F0BD6
:105150000B6EE3EC01F004EEC0F0060EE926EF5012
:105160000A6E04EEE0F0060EE926EFA804D0EF5038
:105170002F0B0B6EE3EC01F005EE00F0060EE926B6
:10518000EF500A6E05EE20F0060EE926EFA804D0D7
:10519000EF502F0B0B6EE3EC01F005EE40F0060E26
:1051A000E926EF500A6E05EE60F0060EE926EFA83C
:1051B00004D0EF502F0B0B6EE3EC01F005EE80F006
:1051C000060EE926EF500A6E05EEA0F0060EE9265F
:1051D000EFA804D0EF502F0B0B6EE3EC01F005EEBF
:1051E000C0F0060EE926EF500A6E05EEE0F0060E5E
:1051F000E926EFA804D0EF502F0B0B6EE3EC01F083
:1052000006EE00F0060EE926EF500A6E06EE20F0DC
:10521000060EE926EFA804D0EF502F0B0B6EE3EC3F
:1052200001F006EE40F0060EE926EF500A6E06EE9B
:1052300060F0060EE926EFA804D0EF502F0B0B6E9E
:10524000E3EC01F006EE80F0060EE926EF500A6E60
:1052500006EEA0F0060EE926EFA804D0EF502F0BC3
:105260000B6EE3EC01F006EEC0F0060EE926EF50FF
:105270000A6E06EEE0F0060EE926EFA804D0EF5025
:105280002F0B0B6EE3EC01F089EF2AF0A63F03D061
:10529000A60789EF2AF0A651C00AD8A489EF2AF000
:1052A000868304EE00F0060EE926EF500A6E04EE47
:1052B00020F0060EE926EF500B6EB00E096E010EBF
:1052C00006631ED0300E0B12E3EC01F0265302E110
:1052D00089EF2AF0B20E096E2651E804F00BE83887
:1052E0000B6E2651E8040F0BE83846110A6E0A428D
:1052F0000A9E46B10B8A0B88E3EC01F089EF2AF095
:10530000030E066310D086B708D0300E0B12B00E15
:10531000096EE3EC01F089EF2AF0100E0B12E3ECBA
:1053200001F089EF2AF0050E06630FD0300E0B1244
:10533000E3EC01F066A189EF2AF0830E096E020EFC
:10534000196EE3EC01F089EF2AF0070E06630FD027
:10535000100E0B12E3EC01F066A189EF2AF0820E29
:10536000096E020E196EE3EC01F089EF2AF0210EAE
:10537000066389EF2AF004EE00F0060EE926EF50EE
:105380000A6E04EE20F0060EE926EFA804D0EF50D6
:105390003F0B0B6EE3EC01F004EE40F0060EE92645
:1053A000EF500A6E04EE60F0060EE926EFA804D076
:1053B000EF503F0B0B6EE3EC01F004EE80F0060EB5
:1053C000E926EF500A6E04EEA0F0060EE926EFA8DB
:1053D00004D0EF503F0B0B6EE3EC01F004EEC0F095
:1053E000060EE926EF500A6E04EEE0F0060EE926FE
:1053F000EFA804D0EF503F0B0B6EE3EC01F005EE8D
:1054000000F0060EE926EF500A6E05EE20F0060EBB
:10541000E926EFA804D0EF503F0B0B6EE3EC01F050
:1054200005EE40F0060EE926EF500A6E05EE60F03C
:10543000060EE926EFA804D0EF503F0B0B6EE3EC0D
:1054400001F005EE80F0060EE926EF500A6E05EE3B
:10545000A0F0060EE926EFA804D0EF503F0B0B6E2C
:10546000E3EC01F005EEC0F0060EE926EF500A6EFF
:1054700005EEE0F0060EE926EFA804D0EF503F0B52
:105480000B6EE3EC01F006EE00F0060EE926EF509D
:105490000A6E06EE20F0060EE926EFA804D0EF50C3
:1054A0003F0B0B6EE3EC01F006EE40F0060EE92632
:1054B000EF500A6E06EE60F0060EE926EFA804D063
:1054C000EF503F0B0B6EE3EC01F006EE80F0060EA2
:1054D000E926EF500A6E06EEA0F0060EE926EFA8C8
:1054E00004D0EF503F0B0B6EE3EC01F006EEC0F082
:1054F000060EE926EF500A6E06EEE0F0060EE926EB
:10550000EFA804D0EF503F0B0B6EE3EC01F089EFF6
:105510002AF0000007A10CEF2DF07DA005D087B385
:10552000E9EF2BF0BFEF2AF080AC9CEF2AF067A1E7
:105530009FEF2AF0C9EF2BF067A1C9EF2BF0A7511D
:10554000D8B40CEF2DF0A707A751400AD8A40CEF50
:105550002DF0879304EE00F0070EE926EF500A6E57
:1055600004EE20F0070EE926EF500B6EB00E096E28
:10557000010E07631DD0100E0B12E3EC01F0275350
:1055800002E10CEF2DF0B20E096E2751E804F00B8A
:10559000E8380B6E2751E8040F0BE83847110A6E04
:1055A0000A420A9E47B10B8AE3EC01F00CEF2DF0A2
:1055B000030E07630CD087B706D0200E0B12E3EC66
:1055C00001F00CEF2DF0E3EC01F00CEF2DF0050EE7
:1055D000076306D0200E0B12E3EC01F00CEF2DF068
:1055E000070E076304D0E3EC01F00CEF2DF0210E61
:1055F00007630CEF2DF004EE00F0070EE926EF50E4
:105600000A6E04EE20F0070EE926EFA804D0EF5052
:105610002F0B0B6EE3EC01F004EE40F0070EE926D1
:10562000EF500A6E04EE60F0070EE926EFA804D0F2
:10563000EF502F0B0B6EE3EC01F004EE80F0070E41
:10564000E926EF500A6E04EEA0F0070EE926EFA857
:1056500004D0EF502F0B0B6EE3EC01F004EEC0F022
:10566000070EE926EF500A6E04EEE0F0070EE92679
:10567000EFA804D0EF502F0B0B6EE3EC01F005EE1A
:1056800000F0070EE926EF500A6E05EE20F0070E37
:10569000E926EFA804D0EF502F0B0B6EE3EC01F0DE
:1056A00005EE40F0070EE926EF500A6E05EE60F0B9
:1056B000070EE926EFA804D0EF502F0B0B6EE3EC9A
:1056C00001F005EE80F0070EE926EF500A6E05EEB8
:1056D000A0F0070EE926EFA804D0EF502F0B0B6EB9
:1056E000E3EC01F005EEC0F0070EE926EF500A6E7C
:1056F00005EEE0F0070EE926EFA804D0EF502F0BDF
:105700000B6EE3EC01F006EE00F0070EE926EF5019
:105710000A6E06EE20F0070EE926EFA804D0EF503F
:105720002F0B0B6EE3EC01F006EE40F0070EE926BE
:10573000EF500A6E06EE60F0070EE926EFA804D0DF
:10574000EF502F0B0B6EE3EC01F006EE80F0070E2E
:10575000E926EF500A6E06EEA0F0070EE926EFA844
:1057600004D0EF502F0B0B6EE3EC01F006EEC0F00F
:10577000070EE926EF500A6E06EEE0F0070EE92666
:10578000EFA804D0EF502F0B0B6EE3EC01F00CEF01
:105790002DF0A73F03D0A7070CEF2DF0A751C00AAB
:1057A000D8A40CEF2DF0878304EE00F0070EE92655
:1057B000EF500A6E04EE20F0070EE926EF500B6E54
:1057C000B00E096E010E07631ED0300E0B12E3EC13
:1057D00001F0275302E10CEF2DF0B20E096E2751B4
:1057E000E804F00BE8380B6E2751E8040F0BE8389B
:1057F00047110A6E0A420A9E47B10B8A0B88E3ECF6
:1058000001F00CEF2DF0030E076310D087B708D01E
:10581000300E0B12B00E096EE3EC01F00CEF2DF020
:10582000100E0B12E3EC01F00CEF2DF0050E0763E8
:105830000FD0300E0B12E3EC01F067A10CEF2DF04E
:10584000830E096E020E196EE3EC01F00CEF2DF0E1
:10585000070E07630FD0100E0B12E3EC01F067A1E7
:105860000CEF2DF0820E096E020E196EE3EC01F0C2
:105870000CEF2DF0210E07630CEF2DF004EE00F07D
:10588000070EE926EF500A6E04EE20F0070EE92617
:10589000EFA804D0EF503F0B0B6EE3EC01F004EEE9
:1058A00040F0070EE926EF500A6E04EE60F0070E96
:1058B000E926EFA804D0EF503F0B0B6EE3EC01F0AC
:1058C00004EE80F0070EE926EF500A6E04EEA0F019
:1058D000070EE926EFA804D0EF503F0B0B6EE3EC68
:1058E00001F004EEC0F0070EE926EF500A6E04EE58
:1058F000E0F0070EE926EFA804D0EF503F0B0B6E47
:10590000E3EC01F005EE00F0070EE926EF500A6E19
:1059100005EE20F0070EE926EFA804D0EF503F0B6C
:105920000B6EE3EC01F005EE40F0070EE926EF50B8
:105930000A6E05EE60F0070EE926EFA804D0EF50DE
:105940003F0B0B6EE3EC01F005EE80F0070EE9264D
:10595000EF500A6E05EEA0F0070EE926EFA804D07E
:10596000EF503F0B0B6EE3EC01F005EEC0F0070EBD
:10597000E926EF500A6E05EEE0F0070EE926EFA8E3
:1059800004D0EF503F0B0B6EE3EC01F006EE00F09D
:10599000070EE926EF500A6E06EE20F0070EE92604
:1059A000EFA804D0EF503F0B0B6EE3EC01F006EED6
:1059B00040F0070EE926EF500A6E06EE60F0070E83
:1059C000E926EFA804D0EF503F0B0B6EE3EC01F09B
:1059D00006EE80F0070EE926EF500A6E06EEA0F004
:1059E000070EE926EFA804D0EF503F0B0B6EE3EC57
:1059F00001F006EEC0F0070EE926EF500A6E06EE43
:105A0000E0F0070EE926EFA804D0EF503F0B0B6E35
:105A1000E3EC01F00CEF2DF0000008A18FEF2FF068
:105A20007DA005D088B36CEF2EF042EF2DF082A060
:105A30001FEF2DF068A122EF2DF04CEF2EF068A1A2
:105A40004CEF2EF0A851D8B48FEF2FF0A807A85133
:105A5000400AD8A48FEF2FF0889304EE00F0080ED0
:105A6000E926EF500A6E04EE20F0080EE926EF500A
:105A70000B6EB00E096E010E08631DD0100E0B12D6
:105A8000E3EC01F0285302E18FEF2FF0B20E096E24
:105A90002851E804F00BE8380B6E2851E8040F0B8E
:105AA000E83848110A6E0A420A9E48B10B8AE3ECB4
:105AB00001F08FEF2FF0030E08630CD088B706D0EB
:105AC000200E0B12E3EC01F08FEF2FF0E3EC01F06E
:105AD0008FEF2FF0050E086306D0200E0B12E3ECBB
:105AE00001F08FEF2FF0070E086304D0E3EC01F014
:105AF0008FEF2FF0210E08638FEF2FF004EE00F0F0
:105B0000080EE926EF500A6E04EE20F0080EE92692
:105B1000EFA804D0EF502F0B0B6EE3EC01F004EE76
:105B200040F0080EE926EF500A6E04EE60F0080E11
:105B3000E926EFA804D0EF502F0B0B6EE3EC01F039
:105B400004EE80F0080EE926EF500A6E04EEA0F095
:105B5000080EE926EFA804D0EF502F0B0B6EE3ECF4
:105B600001F004EEC0F0080EE926EF500A6E04EED4
:105B7000E0F0080EE926EFA804D0EF502F0B0B6ED3
:105B8000E3EC01F005EE00F0080EE926EF500A6E96
:105B900005EE20F0080EE926EFA804D0EF502F0BF9
:105BA0000B6EE3EC01F005EE40F0080EE926EF5035
:105BB0000A6E05EE60F0080EE926EFA804D0EF505B
:105BC0002F0B0B6EE3EC01F005EE80F0080EE926DA
:105BD000EF500A6E05EEA0F0080EE926EFA804D0FB
:105BE000EF502F0B0B6EE3EC01F005EEC0F0080E4A
:105BF000E926EF500A6E05EEE0F0080EE926EFA860
:105C000004D0EF502F0B0B6EE3EC01F006EE00F02A
:105C1000080EE926EF500A6E06EE20F0080EE9267F
:105C2000EFA804D0EF502F0B0B6EE3EC01F006EE63
:105C300040F0080EE926EF500A6E06EE60F0080EFE
:105C4000E926EFA804D0EF502F0B0B6EE3EC01F028
:105C500006EE80F0080EE926EF500A6E06EEA0F080
:105C6000080EE926EFA804D0EF502F0B0B6EE3ECE3
:105C700001F006EEC0F0080EE926EF500A6E06EEBF
:105C8000E0F0080EE926EFA804D0EF502F0B0B6EC2
:105C9000E3EC01F08FEF2FF0A83F03D0A8078FEFC0
