:020000040000FA
:0400000062EF7BF040
:0400080023EF02F0F0
:08001800DAEF00F0516A506AB2
:10002000526A536A546A556A566A576A596A586AD4
:100030005A6A5B6A5C6A5D6A5E6A5F6A616A606A84
:10004000626A636A646A656A666A676A3C0E686EB9
:1000500012000D6A126AE50E086E100E096E200E6F
:100060000A6E2C500B6E2D500C6E6650E8AE02D00E
:10007000E89E0D800E6E6750E8AE02D0E89E0D82BD
:100080000F6E5250E8AE02D0E89E0D84106E5350B1
:10009000E8AE02D0E89E0D86116E5450E8AE02D054
:1000A000E89E1280136E5550E8AE02D0E89E128290
:1000B000146E5650E8AE02D0E89E1284156E57506A
:1000C000E8AE02D0E89E1286166E100E186EDFECB7
:1000D00001F00D6A126A210E0A6E5A50E8AE02D083
:1000E000E89E0D800E6E5B50E8AE02D0E89E0D8259
:1000F0000F6E5C50E8AE02D0E89E0D84106E5D502D
:10010000E8AE02D0E89E0D86116E6450E8AE02D0D3
:10011000E89E1280136E6550E8AE02D0E89E12820F
:10012000146E6050E8AE02D0E89E1284156E6150E5
:10013000E8AE02D0E89E1286166E100E186EDFEC46
:1001400001F00D6A126A220E0A6E6250E8AE02D009
:10015000E89E0D800E6E6350E8AE02D0E89E0D82E0
:100160000F6E5850E8AE02D0E89E0D84106E5950C4
:10017000E8AE02D0E89E0D86116E5E50E8AE02D069
:10018000E89E1280136E5F50E8AE02D0E89E1282A5
:10019000146E5050E8AE02D0E89E1284156E515095
:1001A000E8AE02D0E89E1286166E100E186EDFECD6
:1001B00001F012007A6ED8CF7BF0E0CF7CF09EA0E9
:1001C00043D09E9075AA0CD0829CAB8EB350030B8B
:1001D000060FE81CCF6EB250CE6E759A7594BED0E5
:1001E00075ACF4D7E1CF78F0E2CF79F013EE00F000
:1001F000E750746EB8AC1FD082AE1DD075B40CD071
:10020000B06A770EAF6ECA0ECE6ECF68758478C0B6
:10021000E1FF79C0E2FFA2D0E750AD6E7588736A46
:10022000523E03D0533E01D0542A000078C0E1FF73
:1002300079C0E2FF93D0603E01D0612A000078C00F
:10024000E1FF79C0E2FFC2D7ABA416D05A3E01D07D
:100250005B2A00000000AE50AE507768AB9E828CE7
:1002600075987590FC0ECF6E7B0ECE6E758A503EE3
:1002700001D0512A000072D0AE50726E553E03D0AC
:10028000563E01D0572A000072BE716AE1CF78F065
:10029000E2CF79F0030EE26E800E7124E16E7250AF
:1002A000E76E78C0E1FF79C0E2FF72AE13D0725002
:1002B000706E72BC06D072BA02D0020E08D0040E64
:1002C00006D072BA02D0060E02D07582FF0E776E8B
:1002D000712A1BD07250701A75B2776E7592712A9E
:1002E0007150776212D0010E716E701ED8A407D0C3
:1002F0007580AE50583E01D0592A000006D0758E48
:100300005C3E01D05D2A000029D075A85FD77250ED
:100310007418D8A4A0D7E1CF78F0E2CF79F0732A8F
:10032000030EE26E000E7324E16EE750746E73509C
:10033000766207D0759C759878C0E1FF79C0E2FFBE
:1003400045D7E750AD6E7588523E03D0533E01D07D
:10035000542A000078C0E1FF79C0E2FF7CC0E0FFD2
:100360007A507BC0D8FFF28C1000756A010E716E56
:10037000759C949C948E010EB46E9298B886B88841
:10038000AC98AC94B06A770EAF6EAB8EAB88AC8A8B
:10039000AE50AE50AE50CF6ACE6A759A310ECD6E69
:1003A0009D8A9D809F909F9AD08EF28C1200F29E23
:1003B000550EA76EAA0EA76EA682F28E12001B50D3
:1003C000182405E3663E01D0672A00001200623E51
:1003D00001D0632A0000176A01EE00F010EE08F069
:1003E0001950E96E192A1850EF6E036E1B2A030686
:1003F000E92A192A1B2AE750EF6E171AE12A032E61
:10040000F7D7E92A192A1B2A1750E81CEF6E1200A9
:1004100075BC120019501A6201D0120003EE00F0F0
:1004200021EE00F01A50D926DF50036E766E1A2A9C
:100430001B06D92ADF50EF6EE92A1A2A1B06032E63
:06044000F8D7758C1200D4
:10050000F9509E92CA940044E844F9268092110062
:1005100080941100809A110084901100849211003F
:1005200084941100809E1100809C11008290110023
:100530008292110082941100829611008390110022
:100540008392110083941100839611008298110008
:10055000829A110083981100839A1100839C1100E4
:10056000839E1100819011008192110081941100ED
:100570008196110081981100819A1100819C1100CF
:10058000819E1100020100BF809701BF819702BFC9
:10059000829703BF839704BF849705BF859706BFE3
:1005A000869707BF879708BF889709BF89970ABFB3
:1005B0008A970BBF8B970CBF8C970DBF8D970EBF83
:1005C0008E970FBF8F9710BF909711BF919712BF53
:1005D000929713BF939714BF949715BF959716BF23
:1005E000969717BF979718BF989719BF99971ABFF3
:1005F0009A971BBF9B971CBF9C971DBF9D970000A0
:100600001200220ECA6E9D82D08E9F6AA26AF06A84
:10061000F16A9F82F28E026A1200CAB412000201CD
:1006200000AF40D080B73ED080A11ED080AB06D0B6
:10063000C02F2ED0809B8091020634D0D89060517C
:10064000C02726E380A908D0A02BA051406320D06A
:100650008091808302061CD0A007A051206318D08F
:1006600080918093020614D0050E02601BD080ABEF
:1006700005D08081022A3C0EC06F0AD080B903D019
:1006800080A310D002D080B30DD08081022AC06B2D
:10069000A051CB6E000E006E8087F29C8082CA84CF
:1006A000F28C1200000001AF40D081B73ED081A192
:1006B0001ED081AB06D0C12F2ED0819B8191020626
:1006C00034D0D8906151C12726E381A908D0A12B4D
:1006D000A151416320D08191818302061CD0A107E2
:1006E000A151216318D081918193020614D0050E87
:1006F00002601BD081AB05D08181022A3C0EC16F04
:100700000AD081B903D081A310D002D081B30DD01B
:100710008181022AC16BA151CB6E010E006E8187CF
:10072000F29C8084CA84F28C1200000002AF40D098
:1007300082B73ED082A11ED082AB06D0C22F2ED06F
:10074000829B8291020634D0D8906251C22726E360
:1007500082A908D0A22BA251426320D08291828329
:1007600002061CD0A207A251226318D08291829364
:10077000020614D0050E02601BD082AB05D0828128
:10078000022A3C0EC26F0AD082B903D082A310D0D5
:1007900002D082B30DD08281022AC26BA251CB6EED
:1007A000020E006E8287F29C808ACA84F28C12004C
:1007B000000003AF40D083B73ED083A11ED083ABEF
:1007C00006D0C32F2ED0839B8391020634D0D890BD
:1007D0006351C32726E383A908D0A32BA351436306
:1007E00020D08391838302061CD0A307A3512363E7
:1007F00018D083918393020614D0050E02601BD09B
:1008000083AB05D08381022A3C0EC36F0AD083B923
:1008100003D083A310D002D083B30DD08381022AEA
:10082000C36BA351CB6E030E006E8387F29C848052
:10083000CA84F28C1200000004AF40D084B73ED0CE
:1008400084A11ED084AB06D0C42F2ED0849B84916B
:10085000020634D0D8906451C42726E384A908D076
:10086000A42BA451446320D08491848302061CD01D
:10087000A407A451246318D084918493020614D051
:10088000050E02601BD084AB05D08481022A3C0E89
:10089000C46F0AD084B903D084A310D002D084B32B
:1008A0000DD08481022AC46BA451CB6E040E006E5D
:1008B0008487F29C8482CA84F28C1200000005AF07
:1008C00040D085B73ED085A11ED085AB06D0C52FC0
:1008D0002ED0859B8591020634D0D8906551C527CE
:1008E00026E385A908D0A52BA551456320D0859185
:1008F000858302061CD0A507A551256318D08591D4
:100900008593020614D0050E02601BD085AB05D07E
:100910008581022A3C0EC56F0AD085B903D085A314
:1009200010D002D085B30DD08581022AC56BA551A8
:10093000CB6E050E006E8587F29C8484CA84F28C8F
:100940001200000006AF40D086B73ED086A11ED070
:1009500086AB06D0C62F2ED0869B8691020634D059
:10096000D8906651C62726E386A908D0A62BA651A3
:10097000466320D08691868302061CD0A607A65126
:10098000266318D086918693020614D0050E026065
:100990001BD086AB05D08681022A3C0EC66F0AD0DA
:1009A00086B903D086A310D002D086B30DD086813D
:1009B000022AC66BA651CB6E060E006E8687F29C8D
:1009C000808ECA84F28C1200000007AF40D087B737
:1009D0003ED087A11ED087AB06D0C72F2ED0879BD5
:1009E0008791020634D0D8906751C72726E387A99C
:1009F00008D0A72BA751476320D087918783020691
:100A00001CD0A707A751276318D0879187930206A8
:100A100014D0050E02601BD087AB05D08781022A57
:100A20003C0EC76F0AD087B903D087A310D002D07D
:100A300087B30DD08781022AC76BA751CB6E070EF3
:100A4000006E8787F29C808CCA84F28C12000000B2
:100A500008AF40D088B73ED088A11ED088AB06D062
:100A6000C82F2ED0889B8891020634D0D890685128
:100A7000C82726E388A908D0A82BA851486320D00E
:100A80008891888302061CD0A807A851286318D033
:100A900088918893020614D0050E02601BD088ABA3
:100AA00005D08881022A3C0EC86F0AD088B903D0CD
:100AB00088A310D002D088B30DD08881022AC86BD9
:100AC000A851CB6E080E006E8887F29C8280CA8483
:100AD000F28C1200000009AF40D089B73ED089A146
:100AE0001ED089AB06D0C92F2ED0899B89910206D2
:100AF00034D0D8906951C92726E389A908D0A92BF9
:100B0000A951496320D08991898302061CD0A90785
:100B1000A951296318D089918993020614D0050E32
:100B200002601BD089AB05D08981022A3C0EC96FB7
:100B30000AD089B903D089A310D002D089B30DD0CF
:100B40008981022AC96BA951CB6E090E006E898773
:100B5000F29C8282CA84F28C120000000AAF40D05C
:100B60008AB73ED08AA11ED08AAB06D0CA2F2ED01B
:100B70008A9B8A91020634D0D8906A51CA2726E30C
:100B80008AA908D0AA2BAA514A6320D08A918A83C5
:100B900002061CD0AA07AA512A6318D08A918A9308
:100BA000020614D0050E02601BD08AAB05D08A81E4
:100BB000022A3C0ECA6F0AD08AB903D08AA310D089
:100BC00002D08AB30DD08A81022ACA6BAA51CB6E99
:100BD0000A0E006E8A87F29C8284CA84F28C12000C
:100BE00000000BAF40D08BB73ED08BA11ED08BAB9B
:100BF00006D0CB2F2ED08B9B8B91020634D0D89071
:100C00006B51CB2726E38BA908D0AB2BAB514B63A1
:100C100020D08B918B8302061CD0AB07AB512B638A
:100C200018D08B918B93020614D0050E02601BD056
:100C30008BAB05D08B81022A3C0ECB6F0AD08BB9CF
:100C400003D08BA310D002D08BB30DD08B81022A9E
:100C5000CB6BAB51CB6E0B0E006E8B87F29C8286FA
:100C6000CA84F28C120000000CAF40D08CB73ED08A
:100C70008CA11ED08CAB06D0CC2F2ED08C9B8C910F
:100C8000020634D0D8906C51CC2726E38CA908D02A
:100C9000AC2BAC514C6320D08C918C8302061CD0C1
:100CA000AC07AC512C6318D08C918C93020614D0F5
:100CB000050E02601BD08CAB05D08C81022A3C0E45
:100CC000CC6F0AD08CB903D08CA310D002D08CB3D7
:100CD0000DD08C81022ACC6BAC51CB6E0C0E006E09
:100CE0008C87F29C8380CA84F28C120000000DAFC6
:100CF00040D08DB73ED08DA11ED08DAB06D0CD2F6C
:100D00002ED08D9B8D91020634D0D8906D51CD2779
:100D100026E38DA908D0AD2BAD514D6320D08D9128
:100D20008D8302061CD0AD07AD512D6318D08D9177
:100D30008D93020614D0050E02601BD08DAB05D03A
:100D40008D81022A3C0ECD6F0AD08DB903D08DA3C0
:100D500010D002D08DB30DD08D81022ACD6BAD5154
:100D6000CB6E0D0E006E8D87F29C8382CA84F28C4E
:100D7000120000000EAF40D08EB73ED08EA11ED024
:100D80008EAB06D0CE2F2ED08E9B8E91020634D005
:100D9000D8906E51CE2726E38EA908D0AE2BAE5147
:100DA0004E6320D08E918E8302061CD0AE07AE51CA
:100DB0002E6318D08E918E93020614D0050E026019
:100DC0001BD08EAB05D08E81022A3C0ECE6F0AD08E
:100DD0008EB903D08EA310D002D08EB30DD08E81E9
:100DE000022ACE6BAE51CB6E0E0E006E8E87F29C39
:100DF0008384CA84F28C120000000FAF40D08FB7FA
:100E00003ED08FA11ED08FAB06D0CF2F2ED08F9B80
:100E10008F91020634D0D8906F51CF2726E38FA947
:100E200008D0AF2BAF514F6320D08F918F83020634
:100E30001CD0AF07AF512F6318D08F918F9302064C
:100E400014D0050E02601BD08FAB05D08F81022A13
:100E50003C0ECF6F0AD08FB903D08FA310D002D031
:100E60008FB30DD08F81022ACF6BAF51CB6E0F0E97
:100E7000006E8F87F29C8386CA84F28C1200000079
:100E800010AF40D090B73ED090A11ED090AB06D00E
:100E9000D02F2ED0909B9091020634D0D8907051D4
:100EA000D02726E390A908D0B02BB051506320D0B2
:100EB0009091908302061CD0B007B051306318D0D7
:100EC00090919093020614D0050E02601BD090AB57
:100ED00005D09081022A3C0ED06F0AD090B903D081
:100EE00090A310D002D090B30DD09081022AD06B85
:100EF000B051CB6E100E006E9087F29C8288CA842F
:100F0000F28C1200000011AF40D091B73ED091A1F9
:100F10001ED091AB06D0D12F2ED0919B919102067D
:100F200034D0D8907151D12726E391A908D0B12BA4
:100F3000B151516320D09191918302061CD0B10729
:100F4000B151316318D091919193020614D0050EDE
:100F500002601BD091AB05D09181022A3C0ED16F6B
:100F60000AD091B903D091A310D002D091B30DD083
:100F70009181022AD16BB151CB6E110E006E918717
:100F8000F29C828ACA84F28C1200000012AF40D018
:100F900092B73ED092A11ED092AB06D0D22F2ED0C7
:100FA000929B9291020634D0D8907251D22726E3B8
:100FB00092A908D0B22BB251526320D09291928361
:100FC00002061CD0B207B251326318D092919293AC
:100FD000020614D0050E02601BD092AB05D09281A0
:100FE000022A3C0ED26F0AD092B903D092A310D03D
:100FF00002D092B30DD09281022AD26BB251CB6E45
:10100000120E006E9287F29C8388CA84F28C1200C2
:10101000000013AF40D093B73ED093A11ED093AB46
:1010200006D0D32F2ED0939B9391020634D0D89024
:101030007351D32726E393A908D0B32BB35153633D
:1010400020D09391938302061CD0B307B35133632E
:1010500018D093919393020614D0050E02601BD012
:1010600093AB05D09381022A3C0ED36F0AD093B97B
:1010700003D093A310D002D093B30DD09381022A52
:10108000D36BB351CB6E130E006E9387F29C838AA1
:10109000CA84F28C1200000014AF40D094B73ED046
:1010A00094A11ED094AB06D0D42F2ED0949B9491B3
:1010B000020634D0D8907451D42726E394A908D0DE
:1010C000B42BB451546320D09491948302061CD065
:1010D000B407B451346318D094919493020614D099
:1010E000050E02601BD094AB05D09481022A3C0E01
:1010F000D46F0AD094B903D094A310D002D094B383
:101100000DD09481022AD46BB451CB6E140E006EB4
:101110009487F29C838CCA84F28C1200000015AF75
:1011200040D095B73ED095A11ED095AB06D0D52F17
:101130002ED0959B9591020634D0D8907551D52725
:1011400026E395A908D0B52BB551556320D09591CC
:10115000958302061CD0B507B551356318D095911B
:101160009593020614D0050E02601BD095AB05D0F6
:101170009581022A3C0ED56F0AD095B903D095A36C
:1011800010D002D095B30DD09581022AD56BB55100
:10119000CB6E150E006E9587F29C838ECA84F28CFE
:1011A0001200000016AF40D096B73ED096A11ED0D8
:1011B00096AB06D0D62F2ED0969B9691020634D0B1
:1011C000D8907651D62726E396A908D0B62BB651EB
:1011D000566320D09691968302061CD0B607B6516E
:1011E000366318D096919693020614D0050E0260CD
:1011F0001BD096AB05D09681022A3C0ED66F0AD042
:1012000096B903D096A310D002D096B30DD0968194
:10121000022AD66BB651CB6E160E006E9687F29CE4
:101220008180CA84F28C1200000017AF40D097B7BB
:101230003ED097A11ED097AB06D0D72F2ED0979B2C
:101240009791020634D0D8907751D72726E397A9F3
:1012500008D0B72BB751576320D0979197830206D8
:101260001CD0B707B751376318D0979197930206F0
:1012700014D0050E02601BD097AB05D09781022ACF
:101280003C0ED76F0AD097B903D097A310D002D0E5
:1012900097B30DD09781022AD76BB751CB6E170E3B
:1012A000006E9787F29C8182CA84F28C1200000043
:1012B00018AF40D098B73ED098A11ED098AB06D0BA
:1012C000D82F2ED0989B9891020634D0D890785180
:1012D000D82726E398A908D0B82BB851586320D056
:1012E0009891988302061CD0B807B851386318D07B
:1012F00098919893020614D0050E02601BD098AB0B
:1013000005D09881022A3C0ED86F0AD098B903D034
:1013100098A310D002D098B30DD09881022AD86B30
:10132000B851CB6E180E006E9887F29C8184CA84E7
:10133000F28C1200000019AF40D099B73ED099A1AD
:101340001ED099AB06D0D92F2ED0999B9991020629
:1013500034D0D8907951D92726E399A908D0B92B50
:10136000B951596320D09991998302061CD0B907CD
:10137000B951396318D099919993020614D0050E8A
:1013800002601BD099AB05D09981022A3C0ED96F1F
:101390000AD099B903D099A310D002D099B30DD037
:1013A0009981022AD96BB951CB6E190E006E9987BB
:1013B000F29C8186CA84F28C120000001AAF40D0E1
:1013C0009AB73ED09AA11ED09AAB06D0DA2F2ED073
:1013D0009A9B9A91020634D0D8907A51DA2726E364
:1013E0009AA908D0BA2BBA515A6320D09A919A83FD
:1013F00002061CD0BA07BA513A6318D09A919A9350
:10140000020614D0050E02601BD09AAB05D09A815B
:10141000022A3C0EDA6F0AD09AB903D09AA310D0F0
:1014200002D09AB30DD09A81022ADA6BBA51CB6EF0
:101430001A0E006E9A87F29C8188CA84F28C120080
:1014400000001BAF40D09BB73ED09BA11ED09BABF2
:1014500006D0DB2F2ED09B9B9B91020634D0D890D8
:101460007B51DB2726E39BA908D0BB2BBB515B63D9
:1014700020D09B919B8302061CD0BB07BB513B63D2
:1014800018D09B919B93020614D0050E02601BD0CE
:101490009BAB05D09B81022A3C0EDB6F0AD09BB927
:1014A00003D09BA310D002D09BB30DD09B81022A06
:1014B000DB6BBB51CB6E1B0E006E9B87F29C818A4F
:1014C000CA84F28C120000001CAF40D09CB73ED002
:1014D0009CA11ED09CAB06D0DC2F2ED09C9B9C9157
:1014E000020634D0D8907C51DC2726E39CA908D092
:1014F000BC2BBC515C6320D09C919C8302061CD009
:10150000BC07BC513C6318D09C919C93020614D03C
:10151000050E02601BD09CAB05D09C81022A3C0EBC
:10152000DC6F0AD09CB903D09CA310D002D09CB32E
:101530000DD09C81022ADC6BBC51CB6E1C0E006E60
:101540009C87F29C818CCA84F28C120000001DAF33
:1015500040D09DB73ED09DA11ED09DAB06D0DD2FC3
:101560002ED09D9B9D91020634D0D8907D51DD27D1
:1015700026E39DA908D0BD2BBD515D6320D09D9170
:101580009D8302061CD0BD07BD513D6318D09D91BF
:101590009D93020614D0050E02601BD09DAB05D0B2
:1015A0009D81022A3C0EDD6F0AD09DB903D09DA318
:1015B00010D002D09DB30DD09D81022ADD6BBD51AC
:1015C000CB6E1D0E006E9D87F29C818ECA84F28CBC
:1015D00012000000120075A01200759003018051E6
:1015E0001C6E81511D6E82511E6EB00E1C6280EF0A
:1015F0000DF01EA8120004EE00F024EE20F0366A72
:101600001D50EF62BDD01E500F0BDF62B9D0020E2D
:10161000E26E000E3624E16EE750376E37BE04D01E
:1016200037BC02D037A618D012EE80F03650E12633
:10163000E7981EBAE788000E1EBA120EA6B2FED7B1
:10164000A86E3650800FA96EAA6AD7EC01F0643EEE
:1016500001D0652A000094D037A886D012EE80F021
:101660003650E12637B240D0E92AD92A1D50EF6220
:1016700016D01E500F0BDF6212D0E7981EBAE78813
:10168000E750A6B2FED7A86E3650800FA96EAA6AA0
:10169000D7EC01F0643E01D0652A000022D01EAADA
:1016A00010D0E788E750A6B2FED7A86E3650800F5C
:1016B000A96EAA6AD7EC01F0643E01D0652A000049
:1016C00010D0E12AE798E750A6B2FED7A86E3650B0
:1016D000810FA96EAA6AD7EC01F0643E01D0652A99
:1016E0000000E906D9064CD0E906D9061D50EF6284
:1016F00016D01E500F0BDF6212D0E7881EBAE79893
:10170000E750A6B2FED7A86E3650800FA96EAA6A1F
:10171000D7EC01F0643E01D0652A000022D01EAA59
:1017200010D0E788E750A6B2FED7A86E3650800FDB
:10173000A96EAA6AD7EC01F0643E01D0652A0000C8
:1017400010D0E106E798E750A6B2FED7A86E365053
:101750007F0FA96EAA6AD7EC01F0643E01D0652A1A
:101760000000E92AD92A0CD0030E376209D01EA83E
:1017700007D012EE80F03650E126E7961EBAE786D3
:10178000E92AD92A362A1E0E36623AD70201E151D9
:101790006BE01D50E26307D01E500F0BE36303D0D4
:1017A000E0951EBAE0851D50E46307D01E500F0B74
:1017B000E56303D0E0971EBAE087E0A506D0E0B16C
:1017C00008D0E081E08BE08D04D0E0A102D0E09170
:1017D000E08DE0A706D0E0B308D0E083E09BE08D89
:1017E00004D0E0A302D0E093E08DE0AD3DD0E09DD9
:1017F000E051A6B2FED7A86EE00EA96EAA6AD7EC99
:1018000001F0B00E086E040E186EE651096EE75135
:101810000A6E100E0A12E1A309D0E0A102D0E0B3D3
:101820000A8AE1B10A7ADFEC01F01ED0E1A509D005
:10183000E0B10A8AE0B30A8AE1B10A7ADFEC01F08A
:1018400013D0E1A70DD0E0B10A8AE0B30A8AE0A183
:1018500002D0E0B30A9AE1B10A7ADFEC01F004D0D9
:10186000E0BB0A8ADFEC01F00000E9516BE01D509B
:10187000EA6307D01E500F0BEB6303D0E8951EBA46
:10188000E8851D50EC6307D01E500F0BED6303D0AD
:10189000E8971EBAE887E8A506D0E8B108D0E88145
:1018A000E88BE88D04D0E8A102D0E891E88DE8A7A4
:1018B00006D0E8B308D0E883E89BE88D04D0E8A31D
:1018C00002D0E893E88DE8AD3DD0E89DE851A6B29E
:1018D000FED7A86EE80EA96EAA6AD7EC01F0B00E8A
:1018E000086E040E186EEE51096EEF510A6E100E5E
:1018F0000A12E9A309D0E8A102D0E8B30A8AE9B143
:101900000A7ADFEC01F01ED0E9A509D0E8B10A8A15
:10191000E8B30A8AE9B10A7ADFEC01F013D0E9A74B
:101920000DD0E8B10A8AE8B30A8AE8A102D0E8B388
:101930000A9AE9B10A7ADFEC01F004D0E8BB0A8A1E
:10194000DFEC01F00000F1516BE01D50F26307D0B5
:101950001E500F0BF36303D0F0951EBAF0851D5097
:10196000F46307D01E500F0BF56303D0F0971EBA37
:10197000F087F0A506D0F0B108D0F081F08BF08DA3
:1019800004D0F0A102D0F091F08DF0A706D0F0B312
:1019900008D0F083F09BF08D04D0F0A302D0F09338
:1019A000F08DF0AD3DD0F09DF051A6B2FED7A86EFF
:1019B000F00EA96EAA6AD7EC01F0B00E086E040E04
:1019C000186EF651096EF7510A6E100E0A12F1A345
:1019D00009D0F0A102D0F0B30A8AF1B10A7ADFECA3
:1019E00001F01ED0F1A509D0F0B10A8AF0B30A8A3D
:1019F000F1B10A7ADFEC01F013D0F1A70DD0F0B10C
:101A00000A8AF0B30A8AF0A102D0F0B30A9AF1B1BF
:101A10000A7ADFEC01F004D0F0BB0A8ADFEC01F0B7
:101A20000000F9516BE01D50FA6307D01E500F0BF8
:101A3000FB6303D0F8951EBAF8851D50FC6307D0F0
:101A40001E500F0BFD6303D0F8971EBAF887F8A558
:101A500006D0F8B108D0F881F88BF88D04D0F8A141
:101A600002D0F891F88DF8A706D0F8B308D0F88323
:101A7000F89BF88D04D0F8A302D0F893F88DF8AD58
:101A80003DD0F89DF851A6B2FED7A86EF80EA96E0B
:101A9000AA6AD7EC01F0B00E086E040E186EFE5163
:101AA000096EFF510A6E100E0A12F9A309D0F8A1AF
:101AB00002D0F8B30A8AF9B10A7ADFEC01F01ED03D
:101AC000F9A509D0F8B10A8AF8B30A8AF9B10A7AF5
:101AD000DFEC01F013D0F9A70DD0F8B10A8AF8B302
:101AE0000A8AF8A102D0F8B30A9AF9B10A7ADFECAF
:101AF00001F004D0F8BB0A8ADFEC01F0000012000C
:101B0000E50E1C62C5EF10F083511F6E8451206EEC
:101B10008551216E8651226E8751236E8851246E25
:101B20008951256E8A51266E8B51276E8C51286EF5
:101B30008D51296E8E512A6E1EC02BF01FC02CF0C5
:101B400020C02DF022C02EF023C02FF024C030F092
:101B500025C031F027C032F028C033F029C034F05E
:101B60002AC035F021B02E8E21B22F8E21B4308EB6
:101B700021B6318E26B0328E26B2338E26B4348E04
:101B800026B6358E84B6D1EF0DF02C50016EA6B27C
:101B9000FED7A86EAA6A1F0EA96ED7EC01F0D6EF89
:101BA0000DF02C5203E001502C621200100E2B623B
:101BB0007ED00D6A126AE50E086E100E096E120EC6
:101BC0000A6E2C500B6E2D500C6E2E50E8AE02D0CB
:101BD000E89E0D800E6E2D06AA6A000E2D24A96EB9
:101BE000A680A850E8AE02D0E89E0D820F6E200EAF
:101BF0002D24A96EA680A850E8AE02D0E89E0D84E0
:101C0000106E400E2D24A96EA680A850E8AE02D01A
:101C1000E89E0D86116E600E2D24A96EA680A85038
:101C2000E8AE02D0E89E1280136E800E2D24A96EBD
:101C3000A680A850E8AE02D0E89E1282146E2E0450
:101C400019E1A00E2D24A96EA680A850E8AE02D0FE
:101C5000E89E1284156EC00E2D24A96EA680A85091
:101C6000E8AE02D0E89E1286166E100E186EDFECFB
:101C700001F012002E04400DF3502D24A96EF450F3
:101C8000010FAA6EA680A850E8AE02D0E89E12848A
:101C9000156E200EA926A680A850E8AE02D0E89EB8
:101CA0001286166E100E186EDFEC01F01200160E82
:101CB0002B6264D00D6A126AE50E086E100E096E72
:101CC000170E0A6E2C500B6E2D500C6E0201100E6A
:101CD000186E1F0E2D6213D0E0510E6EE1510F6E83
:101CE000E251106EE351116EE451136EE551146E22
:101CF000E651156EE751166EDFEC01F01200200E72
:101D00002D6213D0E8510E6EE9510F6EEA51106E3C
:101D1000EB51116EEC51136EED51146EEE51156EC8
:101D2000EF51166EDFEC01F01200210E2D6213D080
:101D3000F0510E6EF1510F6EF251106EF351116EA3
:101D4000F451136EF551146EF651156EF751166E6F
:101D5000DFEC01F01200F8510E6EF9510F6EFA51DE
:101D6000106EFB51116EFC51136EFD51146EFE513D
:101D7000156EFF51166EDFEC01F01200110E2B6292
:101D800041EF0FF02D06AA6A2D50A6B2FED7A96E1C
:101D900002EE00F02D50E9262F50EF6EA86ED7EC22
:101DA00001F002EE20F02D50E9263050EF6EA6B281
:101DB000FED7A86E200EA926D7EC01F002EE40F067
:101DC0002D50E9263150EF6EA6B2FED7A86E200E38
:101DD000A926D7EC01F002EE60F02D50E926325032
:101DE000EF6EA6B2FED7A86E200EA926D7EC01F0A2
:101DF00002EE80F02D50E9263350EF6EA6B2FED7EA
:101E0000A86E200EA926D7EC01F02E041BE104EEEB
:101E100000F02D50E9263450EF6EA6B2FED7A86E22
:101E2000200EA926D7EC01F004EE20F02D50E92673
:101E30003550EF6EA6B2FED7A86E200EA926D7ECBD
:101E400001F012002E04400DF3502D24E96EA6B2CD
:101E5000FED7A96EF450010FAA6EF450040FEA6E7B
:101E60003450EF6EA86ED7EC01F0200EE926200E5C
:101E7000A6B2FED7A9263550EF6EA86ED7EC01F0BA
:101E80001200150E2B6274EF10F00201AA6A1F0EE9
:101E90002D6249D0A6B2FED7E00EA96E2E50A86ED4
:101EA000E06FD7EC01F0A6B2FED7E10EA96E2F507D
:101EB000A86EE16FD7EC01F0A6B2FED7E20EA96ED4
:101EC0003050A86EE26FD7EC01F0A6B2FED7E30E59
:101ED000A96E3150A86EE36FD7EC01F0A6B2FED721
:101EE000E40EA96E3250A86EE46FD7EC01F0A6B2F2
:101EF000FED7E50EA96E3350A86EE56FD7EC01F062
:101F0000A6B2FED7E60EA96E3450A86EE66FD7ECE7
:101F100001F0A6B2FED7E70EA96E3550A86EE76FA6
:101F2000D7EC01F01200200E2D6249D0A6B2FED7E8
:101F3000E80EA96E2E50A86EE86FD7EC01F0A6B29D
:101F4000FED7E90EA96E2F50A86EE96FD7EC01F00D
:101F5000A6B2FED7EA0EA96E3050A86EEA6FD7EC93
:101F600001F0A6B2FED7EB0EA96E3150A86EEB6F52
:101F7000D7EC01F0A6B2FED7EC0EA96E3250A86ED7
:101F8000EC6FD7EC01F0A6B2FED7ED0EA96E335080
:101F9000A86EED6FD7EC01F0A6B2FED7EE0EA96EDB
:101FA0003450A86EEE6FD7EC01F0A6B2FED7EF0E5C
:101FB000A96E3550A86EEF6FD7EC01F01200210E1C
:101FC0002D6249D0A6B2FED7F00EA96E2E50A86E93
:101FD000F06FD7EC01F0A6B2FED7F10EA96E2F502C
:101FE000A86EF16FD7EC01F0A6B2FED7F20EA96E83
:101FF0003050A86EF26FD7EC01F0A6B2FED7F30E08
:10200000A96E3150A86EF36FD7EC01F0A6B2FED7DF
:10201000F40EA96E3250A86EF46FD7EC01F0A6B2A0
:10202000FED7F50EA96E3350A86EF56FD7EC01F010
:10203000A6B2FED7F60EA96E3450A86EF66FD7EC96
:1020400001F0A6B2FED7F70EA96E3550A86EF76F55
:10205000D7EC01F01200A6B2FED7F80EA96E2E50F2
:10206000A86EF86FD7EC01F0A6B2FED7F90EA96EF4
:102070002F50A86EF96FD7EC01F0A6B2FED7FA0E7A
:10208000A96E3050A86EFA6FD7EC01F0A6B2FED759
:10209000FB0EA96E3150A86EFB6FD7EC01F0A6B213
:1020A000FED7FC0EA96E3250A86EFC6FD7EC01F083
:1020B000A6B2FED7FD0EA96E3350A86EFD6FD7EC09
:1020C00001F0A6B2FED7FE0EA96E3450A86EFE6FC8
:1020D000D7EC01F0A6B2FED7FF0EA96E3550A86E60
:1020E000FF6FD7EC01F01200130E2B6299EF10F086
:1020F0002E50200AD8A412002F50520AD8A4120041
:102100003050450AD8A412003150530AD8A4120006
:102110003250450AD8A412003350540AD8A41200F1
:102120003450210AD8A412003550200AD8A4120035
:10213000FF00300E2B62C0EF10F02E50200AD8A402
:1021400012002F50520AD8A412003050450AD8A4C9
:1021500012003150530AD8A412003250450AD8A4B4
:1021600012003350540AD8A412003450210AD8A4C3
:1021700012003550200AD8A412000EEC00F0120014
:10218000140E2B62120029EF00F01200020E00ADB7
:1021900006D0A051B36002D0808201D080920000AE
:1021A00001AD06D0A151B36002D0808401D08094EB
:1021B000000002AD06D0A251B36002D0808A01D0E7
:1021C000809A000003AD06D0A351B36002D0848092
:1021D00001D08490000004AD06D0A451B36002D0B9
:1021E000848201D08492000005AD06D0A551B36071
:1021F00002D0848401D08494000006AD06D0A6519C
:10220000B36002D0808E01D0809E000007AD06D062
:10221000A751B36002D0808C01D0809C000008AD33
:1022200006D0A851B36002D0828001D08290000015
:1022300009AD06D0A951B36002D0828201D082924A
:1022400000000AAD06D0AA51B36002D0828401D04A
:10225000829400000BAD06D0AB51B36002D08286F1
:1022600001D0829600000CAD06D0AC51B36002D014
:10227000838001D0839000000DAD06D0AD51B360D6
:1022800002D0838201D0839200000EAD06D0AE5101
:10229000B36002D0838401D0839400000FAD06D0D8
:1022A000AF51B36002D0838601D08396000010AD99
:1022B00006D0B051B36002D0828801D0829800006D
:1022C00011AD06D0B151B36002D0828A01D0829A9A
:1022D000000012AD06D0B251B36002D0838801D0A5
:1022E0008398000013AD06D0B351B36002D0838A47
:1022F00001D0839A000014AD06D0B451B36002D06F
:10230000838C01D0839C000015AD06D0B551B3601D
:1023100002D0838E01D0839E000016AD06D0B65148
:10232000B36002D0818001D08190000017AD06D04B
:10233000B751B36002D0818201D08192000018AD04
:1023400006D0B851B36002D0818401D081940000DE
:1023500019AD06D0B951B36002D0818601D0819603
:1023600000001AAD06D0BA51B36002D0818801D006
:10237000819800001BAD06D0BB51B36002D0818AAA
:1023800001D0819A00001CAD06D0BC51B36002D0D0
:10239000818C01D0819C00001DAD06D0BD51B36081
:1023A00002D0818E01D0819E00001200042E03D045
:1023B0001E0E046E0570020100AD42D080B902D03D
:1023C000809505D0808580A702D005B0809580A13A
:1023D0002FD06051E844066E80A514D0D89080ECD0
:1023E0001AF0C027D8B0A02B07E000EC1AF0A02705
:1023F00003E2A051406124D040C2A0F2C06B8091A2
:1024000080831ED0D89080EC1AF0C05F0790D8B0BF
:10241000078000EC1AF007A0E83EA05F03E3A0519C
:1024200020650ED020C2A0F2C06B8091809308D0AE
:1024300080B503D080A304D002D080B301D08081C6
:10244000000001AD42D081B902D0819505D08185CF
:1024500081A702D005B0819581A12FD06151E844B8
:10246000066E81A514D0D89080EC1AF0C127D8B0A0
:10247000A12B07E000EC1AF0A12703E2A151416172
:1024800024D041C2A1F2C16B819181831ED0D8902A
:1024900080EC1AF0C15F0790D8B0078000EC1AF00A
:1024A00007A0E83EA15F03E3A15121650ED021C240
:1024B000A1F2C16B8191819308D081B503D081A332
:1024C00004D002D081B301D08181000002AD42D09E
:1024D00082B902D0829505D0828582A702D005B04C
:1024E000829582A12FD06251E844066E82A514D055
:1024F000D89080EC1AF0C227D8B0A22B07E000ECED
:102500001AF0A22703E2A251426124D042C2A2F2F1
:10251000C26B829182831ED0D89080EC1AF0C25F89
:102520000790D8B0078000EC1AF007A0E83EA25F41
:1025300003E3A25122650ED022C2A2F2C26B8291A5
:10254000829308D082B503D082A304D002D082B394
:1025500001D08281000003AD42D083B902D08395BF
:1025600005D0838583A702D005B0839583A12FD0A2
:102570006351E844066E83A514D0D89080EC1AF01D
:10258000C327D8B0A32B07E000EC1AF0A32703E27F
:10259000A351436124D043C2A3F2C36B83918383CD
:1025A0001ED0D89080EC1AF0C35F0790D8B0078097
:1025B00000EC1AF007A0E83EA35F03E3A3512365F4
:1025C0000ED023C2A3F2C36B8391839308D083B54B
:1025D00003D083A304D002D083B301D08381000051
:1025E00004AD42D084B902D0849505D0848584A7F7
:1025F00002D005B0849584A12FD06451E844066EC2
:1026000084A514D0D89080EC1AF0C427D8B0A42B9D
:1026100007E000EC1AF0A42703E2A451446124D09F
:1026200044C2A4F2C46B849184831ED0D89080EC01
:102630001AF0C45F0790D8B0078000EC1AF007A02A
:10264000E83EA45F03E3A45124650ED024C2A4F2A3
:10265000C46B8491849308D084B503D084A304D040
:1026600002D084B301D08481000005AD42D085B989
:1026700002D0859505D0858585A702D005B08595C2
:1026800085A12FD06551E844066E85A514D0D89059
:1026900080EC1AF0C527D8B0A52B07E000EC1AF0A3
:1026A000A52703E2A551456124D045C2A5F2C56B1B
:1026B000859185831ED0D89080EC1AF0C55F079075
:1026C000D8B0078000EC1AF007A0E83EA55F03E34E
:1026D000A55125650ED025C2A5F2C56B85918593C0
:1026E00008D085B503D085A304D002D085B301D02E
:1026F0008581000006AD42D086B902D0869505D00E
:10270000868586A702D005B0869586A12FD0665112
:10271000E844066E86A514D0D89080EC1AF0C6273F
:10272000D8B0A62B07E000EC1AF0A62703E2A651CA
:10273000466124D046C2A6F2C66B869186831ED01F
:10274000D89080EC1AF0C65F0790D8B0078000ECF4
:102750001AF007A0E83EA65F03E3A65126650ED057
:1027600026C2A6F2C66B8691869308D086B503D0A2
:1027700086A304D002D086B301D08681000007ADC5
:1027800042D087B902D0879505D0878587A702D028
:1027900005B0879587A12FD06751E844066E87A5BD
:1027A00014D0D89080EC1AF0C727D8B0A72B07E038
:1027B00000EC1AF0A72703E2A751476124D047C2D3
:1027C000A7F2C76B879187831ED0D89080EC1AF050
:1027D000C75F0790D8B0078000EC1AF007A0E83E6A
:1027E000A75F03E3A75127650ED027C2A7F2C76BE7
:1027F0008791879308D087B503D087A304D002D0F0
:1028000087B301D08781000008AD42D088B902D0DB
:10281000889505D0888588A702D005B0889588A1BD
:102820002FD06851E844066E88A514D0D89080EC6B
:102830001AF0C827D8B0A82B07E000EC1AF0A82798
:1028400003E2A851486124D048C2A8F2C86B88911D
:1028500088831ED0D89080EC1AF0C85F0790D8B05B
:10286000078000EC1AF007A0E83EA85F03E3A85138
:1028700028650ED028C2A8F2C86B8891889308D02A
:1028800088B503D088A304D002D088B301D0888152
:10289000000009AD42D089B902D0899505D089855B
:1028A00089A702D005B0899589A12FD06951E84444
:1028B000066E89A514D0D89080EC1AF0C927D8B03C
:1028C000A92B07E000EC1AF0A92703E2A9514961FE
:1028D00024D049C2A9F2C96B899189831ED0D890AE
:1028E00080EC1AF0C95F0790D8B0078000EC1AF0AE
:1028F00007A0E83EA95F03E3A95129650ED029C2CC
:10290000A9F2C96B8991899308D089B503D089A3AD
:1029100004D002D089B301D0898100000AAD42D031
:102920008AB902D08A9505D08A858AA702D005B0D7
:102930008A958AA12FD06A51E844066E8AA514D0E0
:10294000D89080EC1AF0CA27D8B0AA2B07E000EC88
:102950001AF0AA2703E2AA514A6124D04AC2AAF275
:10296000CA6B8A918A831ED0D89080EC1AF0CA5F15
:102970000790D8B0078000EC1AF007A0E83EAA5FE5
:1029800003E3AA512A650ED02AC2AAF2CA6B8A9121
:102990008A9308D08AB503D08AA304D002D08AB320
:1029A00001D08A8100000BAD42D08BB902D08B954B
:1029B00005D08B858BA702D005B08B958BA12FD02E
:1029C0006B51E844066E8BA514D0D89080EC1AF0B9
:1029D000CB27D8B0AB2B07E000EC1AF0AB2703E213
:1029E000AB514B6124D04BC2ABF2CB6B8B918B8341
:1029F0001ED0D89080EC1AF0CB5F0790D8B007803B
:102A000000EC1AF007A0E83EAB5F03E3AB512B6587
:102A10000ED02BC2ABF2CB6B8B918B9308D08BB5C6
:102A200003D08BA304D002D08BB301D08B810000E4
:102A30000CAD42D08CB902D08C9505D08C858CA77A
:102A400002D005B08C958CA12FD06C51E844066E55
:102A50008CA514D0D89080EC1AF0CC27D8B0AC2B31
:102A600007E000EC1AF0AC2703E2AC514C6124D033
:102A70004CC2ACF2CC6B8C918C831ED0D89080EC85
:102A80001AF0CC5F0790D8B0078000EC1AF007A0CE
:102A9000E83EAC5F03E3AC512C650ED02CC2ACF227
:102AA000CC6B8C918C9308D08CB503D08CA304D0C4
:102AB00002D08CB301D08C8100000DAD42D08DB915
:102AC00002D08D9505D08D858DA702D005B08D954E
:102AD0008DA12FD06D51E844066E8DA514D0D890ED
:102AE00080EC1AF0CD27D8B0AD2B07E000EC1AF03F
:102AF000AD2703E2AD514D6124D04DC2ADF2CD6B97
:102B00008D918D831ED0D89080EC1AF0CD5F079008
:102B1000D8B0078000EC1AF007A0E83EAD5F03E3F1
:102B2000AD512D650ED02DC2ADF2CD6B8D918D9333
:102B300008D08DB503D08DA304D002D08DB301D0C1
:102B40008D8100000EAD42D08EB902D08E9505D099
:102B50008E858EA702D005B08E958EA12FD06E5196
:102B6000E844066E8EA514D0D89080EC1AF0CE27DB
:102B7000D8B0AE2B07E000EC1AF0AE2703E2AE515E
:102B80004E6124D04EC2AEF2CE6B8E918E831ED09B
:102B9000D89080EC1AF0CE5F0790D8B0078000EC98
:102BA0001AF007A0E83EAE5F03E3AE512E650ED0EB
:102BB0002EC2AEF2CE6B8E918E9308D08EB503D01E
:102BC0008EA304D002D08EB301D08E8100000FAD51
:102BD00042D08FB902D08F9505D08F858FA702D0B4
:102BE00005B08F958FA12FD06F51E844066E8FA549
:102BF00014D0D89080EC1AF0CF27D8B0AF2B07E0D4
:102C000000EC1AF0AF2703E2AF514F6124D04FC25E
:102C1000AFF2CF6B8F918F831ED0D89080EC1AF0DB
:102C2000CF5F0790D8B0078000EC1AF007A0E83E0D
:102C3000AF5F03E3AF512F650ED02FC2AFF2CF6B62
:102C40008F918F9308D08FB503D08FA304D002D07B
:102C50008FB301D08F81000010AD42D090B902D067
:102C6000909505D0908590A702D005B0909590A141
:102C70002FD07051E844066E90A514D0D89080EC07
:102C80001AF0D027D8B0B02B07E000EC1AF0B0272C
:102C900003E2B051506124D050C2B0F2D06B909199
:102CA00090831ED0D89080EC1AF0D05F0790D8B0F7
:102CB000078000EC1AF007A0E83EB05F03E3B051D4
:102CC00030650ED030C2B0F2D06B9091909308D0A6
:102CD00090B503D090A304D002D090B301D09081DE
:102CE000000011AD42D091B902D0919505D09185E7
:102CF00091A702D005B0919591A12FD07151E844D0
:102D0000066E91A514D0D89080EC1AF0D127D8B0D7
:102D1000B12B07E000EC1AF0B12703E2B151516189
:102D200024D051C2B1F2D16B919191831ED0D89031
:102D300080EC1AF0D15F0790D8B0078000EC1AF051
:102D400007A0E83EB15F03E3B15131650ED031C257
:102D5000B1F2D16B9191919308D091B503D091A329
:102D600004D002D091B301D09181000012AD42D0C5
:102D700092B902D0929505D0928592A702D005B063
:102D8000929592A12FD07251E844066E92A514D06C
:102D9000D89080EC1AF0D227D8B0B22B07E000EC24
:102DA0001AF0B22703E2B251526124D052C2B2F2F9
:102DB000D26B929192831ED0D89080EC1AF0D25FA1
:102DC0000790D8B0078000EC1AF007A0E83EB25F89
:102DD00003E3B25132650ED032C2B2F2D26B92919D
:102DE000929308D092B503D092A304D002D092B3AC
:102DF00001D09281000013AD42D093B902D09395D7
:102E000005D0938593A702D005B0939593A12FD0B9
:102E10007351E844066E93A514D0D89080EC1AF054
:102E2000D327D8B0B32B07E000EC1AF0B32703E2A6
:102E3000B351536124D053C2B3F2D36B93919383B4
:102E40001ED0D89080EC1AF0D35F0790D8B00780DE
:102E500000EC1AF007A0E83EB35F03E3B35133651B
:102E60000ED033C2B3F2D36B9391939308D093B542
:102E700003D093A304D002D093B301D09381000078
:102E800014AD42D094B902D0949505D0948594A7FE
:102E900002D005B0949594A12FD07451E844066EE9
:102EA00094A514D0D89080EC1AF0D427D8B0B42BC5
:102EB00007E000EC1AF0B42703E2B451546124D0C7
:102EC00054C2B4F2D46B949194831ED0D89080EC09
:102ED0001AF0D45F0790D8B0078000EC1AF007A072
:102EE000E83EB45F03E3B45134650ED034C2B4F2AB
:102EF000D46B9491949308D094B503D094A304D048
:102F000002D094B301D09481000015AD42D095B9A0
:102F100002D0959505D0958595A702D005B09595D9
:102F200095A12FD07551E844066E95A514D0D89080
:102F300080EC1AF0D527D8B0B52B07E000EC1AF0DA
:102F4000B52703E2B551556124D055C2B5F2D56B12
:102F5000959195831ED0D89080EC1AF0D55F07909C
:102F6000D8B0078000EC1AF007A0E83EB55F03E395
:102F7000B55135650ED035C2B5F2D56B95919593A7
:102F800008D095B503D095A304D002D095B301D055
:102F90009581000016AD42D096B902D0969505D025
:102FA000968596A702D005B0969596A12FD076511A
:102FB000E844066E96A514D0D89080EC1AF0D62777
:102FC000D8B0B62B07E000EC1AF0B62703E2B651F2
:102FD000566124D056C2B6F2D66B969196831ED017
:102FE000D89080EC1AF0D65F0790D8B0078000EC3C
:102FF0001AF007A0E83EB65F03E3B65136650ED07F
:1030000036C2B6F2D66B9691969308D096B503D099
:1030100096A304D002D096B301D09681000017ADDC
:1030200042D097B902D0979505D0978597A702D03F
:1030300005B0979597A12FD07751E844066E97A5D4
:1030400014D0D89080EC1AF0D727D8B0B72B07E06F
:1030500000EC1AF0B72703E2B751576124D057C2EA
:10306000B7F2D76B979197831ED0D89080EC1AF067
:10307000D75F0790D8B0078000EC1AF007A0E83EB1
:10308000B75F03E3B75137650ED037C2B7F2D76BDE
:103090009791979308D097B503D097A304D002D007
:1030A00097B301D09781000018AD42D098B902D0F3
:1030B000989505D0988598A702D005B0989598A1C5
:1030C0002FD07851E844066E98A514D0D89080ECA3
:1030D0001AF0D827D8B0B82B07E000EC1AF0B827C0
:1030E00003E2B851586124D058C2B8F2D86B989115
:1030F00098831ED0D89080EC1AF0D85F0790D8B093
:10310000078000EC1AF007A0E83EB85F03E3B8516F
:1031100038650ED038C2B8F2D86B9891989308D021
:1031200098B503D098A304D002D098B301D0988169
:10313000000019AD42D099B902D0999505D0998572
:1031400099A702D005B0999599A12FD07951E8445B
:10315000066E99A514D0D89080EC1AF0D927D8B073
:10316000B92B07E000EC1AF0B92703E2B951596115
:1031700024D059C2B9F2D96B999199831ED0D890B5
:1031800080EC1AF0D95F0790D8B0078000EC1AF0F5
:1031900007A0E83EB95F03E3B95139650ED039C2E3
:1031A000B9F2D96B9991999308D099B503D099A3A5
:1031B00004D002D099B301D0998100001AAD42D059
:1031C0009AB902D09A9505D09A859AA702D005B0EF
:1031D0009A959AA12FD07A51E844066E9AA514D0F8
:1031E000D89080EC1AF0DA27D8B0BA2B07E000ECC0
:1031F0001AF0BA2703E2BA515A6124D05AC2BAF27D
:10320000DA6B9A919A831ED0D89080EC1AF0DA5F2C
:103210000790D8B0078000EC1AF007A0E83EBA5F2C
:1032200003E3BA513A650ED03AC2BAF2DA6B9A9118
:103230009A9308D09AB503D09AA304D002D09AB337
:1032400001D09A8100001BAD42D09BB902D09B9562
:1032500005D09B859BA702D005B09B959BA12FD045
:103260007B51E844066E9BA514D0D89080EC1AF0F0
:10327000DB27D8B0BB2B07E000EC1AF0BB2703E23A
:10328000BB515B6124D05BC2BBF2DB6B9B919B8328
:103290001ED0D89080EC1AF0DB5F0790D8B0078082
:1032A00000EC1AF007A0E83EBB5F03E3BB513B65AF
:1032B0000ED03BC2BBF2DB6B9B919B9308D09BB5BE
:1032C00003D09BA304D002D09BB301D09B8100000C
:1032D0001CAD42D09CB902D09C9505D09C859CA782
:1032E00002D005B09C959CA12FD07C51E844066E7D
:1032F0009CA514D0D89080EC1AF0DC27D8B0BC2B59
:1033000007E000EC1AF0BC2703E2BC515C6124D05A
:103310005CC2BCF2DC6B9C919C831ED0D89080EC8C
:103320001AF0DC5F0790D8B0078000EC1AF007A015
:10333000E83EBC5F03E3BC513C650ED03CC2BCF22E
:10334000DC6B9C919C9308D09CB503D09CA304D0CB
:1033500002D09CB301D09C8100001DAD42D09DB92C
:1033600002D09D9505D09D859DA702D005B09D9565
:103370009DA12FD07D51E844066E9DA514D0D89014
:1033800080EC1AF0DD27D8B0BD2B07E000EC1AF076
:10339000BD2703E2BD515D6124D05DC2BDF2DD6B8E
:1033A0009D919D831ED0D89080EC1AF0DD5F079030
:1033B000D8B0078000EC1AF007A0E83EBD5F03E339
:1033C000BD513D650ED03DC2BDF2DD6B9D919D931B
:1033D00008D09DB503D09DA304D002D09DB301D0E9
:0633E0009D8100001200B7
:10340000F9500650F9262A0C040C020C010C010C90
:10341000000C000C000C000C000C000C000C000C4C
:10342000000C000C000C000C000C000C000C000C3C
:10343000000C000C000C000C000C000C000C000C2C
:10344000000C000C000C000C000C000C000C000C1C
:10345000000C000C000C000C000C000C000C000C0C
:10346000000C000C000C000C000C000C000C000CFC
:10347000000C000C000C000C000C000C000C000CEC
:10348000000C000C000C000C000C000C000C000CDC
:10349000000C000C000C000C000C000C000C000CCC
:1034A000000C000C000C000C000C000C000C000CBC
:1034B000000C000C000C000C000C000C000C000CAC
:1034C000000C000C000C000C000C000C000C2A0C72
:1034D0002A0C150C0E0C0A0C080C070C060C050C1B
:0434E000040C040CC8
:10350000F9500650F926AA0C440C220C6C0C110C34
:10351000DA0CB60C9C0C880C790C6D0C630C5B0CF3
:10352000540C4E0C480C440C400C3C0C390C360C22
:10353000340C310C2F0C2D0C2B0C2A0C280C270CC6
:10354000250C240C230C220C210C200C1F0C1E0C0F
:103550001D0C1C0C1C0C1B0C1A0C1A0C190C180C36
:10356000180C170C170C160C160C150C150C150C4A
:10357000140C140C130C130C130C120C120C120C54
:10358000120C120C120C120C120C120C120C120C4B
:10359000120C120C120C120C120C120C120C120C3B
:1035A000120C120C120C120C120C120C120C120C2B
:1035B000120C120C120C120C120C120C120C120C1B
:1035C000120C120C120C120C120C120C120CAA0C73
:1035D000AA0C550C380CAA0C880C1C0C180C550C99
:1035E000BD0C440CB00E086E040E186E020100A152
:1035F00076D280A201EF1BF060A104EF1BF02EEF4A
:103600001CF060A12EEF1CF0A051D8B46FEF1DF09C
:10361000A007A051400AD8A46FEF1DF0809304EEDC
:1036200000F0000EE926EF50096E04EE20F0000EC7
:10363000E926EF500A6E010E00631FD0100E0A1229
:10364000DFEC01F0205302E16FEF1DF0B20E086EC7
:10365000040E186E2051E804F00BE8380A6E205171
:10366000E8040F0BE8384011096E0942099E40B189
:103670000A8ADFEC01F06FEF1DF0030E00630CD03F
:1036800080B706D0200E0A12DFEC01F06FEF1DF0BC
:10369000DFEC01F06FEF1DF0050E006306D0200E89
:1036A0000A12DFEC01F06FEF1DF0070E006304D08B
:1036B000DFEC01F06FEF1DF0210E00636FEF1DF0E6
:1036C00004EE00F0000EE926EF50096E04EE20F043
:1036D000000EE926EFA804D0EF502F0B0A6EDFECA6
:1036E00001F004EE40F0000EE926EF50096E04EE02
:1036F00060F0000EE926EFA804D0EF502F0B0A6E01
:10370000DFEC01F004EE80F0000EE926EF50096EC8
:1037100004EEA0F0000EE926EFA804D0EF502F0B26
:103720000A6EDFEC01F004EEC0F0000EE926EF5067
:10373000096E04EEE0F0000EE926EFA804D0EF5089
:103740002F0B0A6EDFEC01F005EE00F0000EE9260B
:10375000EF50096E05EE20F0000EE926EFA804D028
:10376000EF502F0B0A6EDFEC01F005EE40F0000E7B
:10377000E926EF50096E05EE60F0000EE926EFA88D
:1037800004D0EF502F0B0A6EDFEC01F005EE80F055
:10379000000EE926EF50096E05EEA0F0000EE926B6
:1037A000EFA804D0EF502F0B0A6EDFEC01F005EE0E
:1037B000C0F0000EE926EF50096E05EEE0F0000EB5
:1037C000E926EFA804D0EF502F0B0A6EDFEC01F0D2
:1037D00006EE00F0000EE926EF50096E06EE20F02E
:1037E000000EE926EFA804D0EF502F0B0A6EDFEC95
:1037F00001F006EE40F0000EE926EF50096E06EEED
:1038000060F0000EE926EFA804D0EF502F0B0A6EEF
:10381000DFEC01F006EE80F0000EE926EF50096EB5
:1038200006EEA0F0000EE926EFA804D0EF502F0B13
:103830000A6EDFEC01F006EEC0F0000EE926EF5054
:10384000096E06EEE0F0000EE926EFA804D0EF5076
:103850002F0B0A6EDFEC01F06FEF1DF0A03F03D0DD
:10386000A0076FEF1DF0A051C00AD8A46FEF1DF0A4
:10387000808304EE00F0000EE926EF50096E04EE9E
:1038800020F0000EE926EF500A6E010E006320D0F2
:10389000300E0A12DFEC01F0205302E16FEF1DF051
:1038A000B20E086E040E186E2051E804F00BE838D2
:1038B0000A6E2051E8040F0BE8384011096E0942E6
:1038C000099E40B10A8A0A88DFEC01F06FEF1DF013
:1038D000030E00630ED080B706D0300E0A12DFEC64
:1038E00001F06FEF1DF0100E0A12DFEC01F06FEF28
:1038F0001DF0050E00630FD0300E0A12DFEC01F050
:1039000060A16FEF1DF0830E086E020E186EDFECE3
:1039100001F06FEF1DF0070E00630FD0100E0A12BA
:10392000DFEC01F060A16FEF1DF0820E086E020E59
:10393000186EDFEC01F06FEF1DF0210E00636FEFEA
:103940001DF004EE00F0000EE926EF50096E04EEC3
:1039500020F0000EE926EFA804D0EF503F0B0A6ECE
:10396000DFEC01F004EE40F0000EE926EF50096EA6
:1039700004EE60F0000EE926EFA804D0EF503F0BF4
:103980000A6EDFEC01F004EE80F0000EE926EF5045
:10399000096E04EEA0F0000EE926EFA804D0EF5067
:1039A0003F0B0A6EDFEC01F004EEC0F0000EE926DA
:1039B000EF50096E04EEE0F0000EE926EFA804D007
:1039C000EF503F0B0A6EDFEC01F005EE00F0000E49
:1039D000E926EF50096E05EE20F0000EE926EFA86B
:1039E00004D0EF503F0B0A6EDFEC01F005EE40F023
:1039F000000EE926EF50096E05EE60F0000EE92694
:103A0000EFA804D0EF503F0B0A6EDFEC01F005EE9B
:103A100080F0000EE926EF50096E05EEA0F0000ED2
:103A2000E926EFA804D0EF503F0B0A6EDFEC01F05F
:103A300005EEC0F0000EE926EF50096E05EEE0F04D
:103A4000000EE926EFA804D0EF503F0B0A6EDFEC22
:103A500001F006EE00F0000EE926EF50096E06EECA
:103A600020F0000EE926EFA804D0EF503F0B0A6EBD
:103A7000DFEC01F006EE40F0000EE926EF50096E93
:103A800006EE60F0000EE926EFA804D0EF503F0BE1
:103A90000A6EDFEC01F006EE80F0000EE926EF5032
:103AA000096E06EEA0F0000EE926EFA804D0EF5054
:103AB0003F0B0A6EDFEC01F006EEC0F0000EE926C7
:103AC000EF50096E06EEE0F0000EE926EFA804D0F4
:103AD000EF503F0B0A6EDFEC01F06FEF1DF00000BE
:103AE00001A176D280A47AEF1DF061A17DEF1DF0D7
:103AF000A7EF1EF061A1A7EF1EF0A151D8B4E8EF27
:103B00001FF0A107A151400AD8A4E8EF1FF081934C
:103B100004EE00F0010EE926EF50096E04EE20F0ED
:103B2000010EE926EF500A6E010E01631FD0100E40
:103B30000A12DFEC01F0215302E1E8EF1FF0B20EB0
:103B4000086E040E186E2151E804F00BE8380A6E76
:103B50002151E8040F0BE8384111096E0942099E12
:103B600041B10A8ADFEC01F0E8EF1FF0030E0163B8
:103B70000CD081B706D0200E0A12DFEC01F0E8EF7E
:103B80001FF0DFEC01F0E8EF1FF0050E016306D037
:103B9000200E0A12DFEC01F0E8EF1FF0070E0163C0
:103BA00004D0DFEC01F0E8EF1FF0210E0163E8EF35
:103BB0001FF004EE00F0010EE926EF50096E04EE4E
:103BC00020F0010EE926EFA804D0EF502F0B0A6E6B
:103BD000DFEC01F004EE40F0010EE926EF50096E33
:103BE00004EE60F0010EE926EFA804D0EF502F0B91
:103BF0000A6EDFEC01F004EE80F0010EE926EF50D2
:103C0000096E04EEA0F0010EE926EFA804D0EF50F3
:103C10002F0B0A6EDFEC01F004EEC0F0010EE92676
:103C2000EF50096E04EEE0F0010EE926EFA804D093
:103C3000EF502F0B0A6EDFEC01F005EE00F0010EE5
:103C4000E926EF50096E05EE20F0010EE926EFA8F7
:103C500004D0EF502F0B0A6EDFEC01F005EE40F0C0
:103C6000010EE926EF50096E05EE60F0010EE9261F
:103C7000EFA804D0EF502F0B0A6EDFEC01F005EE39
:103C800080F0010EE926EF50096E05EEA0F0010E5E
:103C9000E926EFA804D0EF502F0B0A6EDFEC01F0FD
:103CA00005EEC0F0010EE926EF50096E05EEE0F0DA
:103CB000010EE926EFA804D0EF502F0B0A6EDFECBF
:103CC00001F006EE00F0010EE926EF50096E06EE57
:103CD00020F0010EE926EFA804D0EF502F0B0A6E5A
:103CE000DFEC01F006EE40F0010EE926EF50096E20
:103CF00006EE60F0010EE926EFA804D0EF502F0B7E
:103D00000A6EDFEC01F006EE80F0010EE926EF50BE
:103D1000096E06EEA0F0010EE926EFA804D0EF50E0
:103D20002F0B0A6EDFEC01F006EEC0F0010EE92663
:103D3000EF50096E06EEE0F0010EE926EFA804D080
:103D4000EF502F0B0A6EDFEC01F0E8EF1FF0A13F00
:103D500003D0A107E8EF1FF0A151C00AD8A4E8EFF3
:103D60001FF0818304EE00F0010EE926EF50096E8A
:103D700004EE20F0010EE926EF500A6E010E0163F9
:103D800020D0300E0A12DFEC01F0215302E1E8EFFF
:103D90001FF0B20E086E040E186E2151E804F00BED
:103DA000E8380A6E2151E8040F0BE8384111096E1A
:103DB0000942099E41B10A8A0A88DFEC01F0E8EF66
:103DC0001FF0030E01630ED081B706D0300E0A1229
:103DD000DFEC01F0E8EF1FF0100E0A12DFEC01F04B
:103DE000E8EF1FF0050E01630FD0300E0A12DFEC72
:103DF00001F061A1E8EF1FF0830E086E020E186E4D
:103E0000DFEC01F0E8EF1FF0070E01630FD0100E9A
:103E10000A12DFEC01F061A1E8EF1FF0820E086EDC
:103E2000020E186EDFEC01F0E8EF1FF0210E0163C7
:103E3000E8EF1FF004EE00F0010EE926EF50096EE6
:103E400004EE20F0010EE926EFA804D0EF503F0B5E
:103E50000A6EDFEC01F004EE40F0010EE926EF50AF
:103E6000096E04EE60F0010EE926EFA804D0EF50D1
:103E70003F0B0A6EDFEC01F004EE80F0010EE92644
:103E8000EF50096E04EEA0F0010EE926EFA804D071
:103E9000EF503F0B0A6EDFEC01F004EEC0F0010EB4
:103EA000E926EF50096E04EEE0F0010EE926EFA8D6
:103EB00004D0EF503F0B0A6EDFEC01F005EE00F08E
:103EC000010EE926EF50096E05EE20F0010EE926FD
:103ED000EFA804D0EF503F0B0A6EDFEC01F005EEC7
:103EE00040F0010EE926EF50096E05EE60F0010E7C
:103EF000E926EFA804D0EF503F0B0A6EDFEC01F08B
:103F000005EE80F0010EE926EF50096E05EEA0F0F7
:103F1000010EE926EFA804D0EF503F0B0A6EDFEC4C
:103F200001F005EEC0F0010EE926EF50096E05EE36
:103F3000E0F0010EE926EFA804D0EF503F0B0A6E27
:103F4000DFEC01F006EE00F0010EE926EF50096EFD
:103F500006EE20F0010EE926EFA804D0EF503F0B4B
:103F60000A6EDFEC01F006EE40F0010EE926EF509C
:103F7000096E06EE60F0010EE926EFA804D0EF50BE
:103F80003F0B0A6EDFEC01F006EE80F0010EE92631
:103F9000EF50096E06EEA0F0010EE926EFA804D05E
:103FA000EF503F0B0A6EDFEC01F006EEC0F0010EA1
:103FB000E926EF50096E06EEE0F0010EE926EFA8C3
:103FC00004D0EF503F0B0A6EDFEC01F0E8EF1FF07A
:103FD000000002A176D280AAF3EF1FF062A1F6EFF3
:103FE0001FF020EF21F062A120EF21F0A251D8B400
:103FF00061EF22F0A207A251400AD8A461EF22F09B
:10400000829304EE00F0020EE926EF50096E04EEF2
:1040100020F0020EE926EF500A6E010E02631FD057
:10402000100E0A12DFEC01F0225302E161EF22F0E0
:10403000B20E086E040E186E2251E804F00BE83838
:104040000A6E2251E8040F0BE8384211096E09424A
:10405000099E42B10A8ADFEC01F061EF22F0030E03
:1040600002630CD082B706D0200E0A12DFEC01F0FA
:1040700061EF22F0DFEC01F061EF22F0050E026348
:1040800006D0200E0A12DFEC01F061EF22F0070EDD
:10409000026304D0DFEC01F061EF22F0210E026335
:1040A00061EF22F004EE00F0020EE926EF50096EF7
:1040B00004EE20F0020EE926EFA804D0EF502F0BFB
:1040C0000A6EDFEC01F004EE40F0020EE926EF503C
:1040D000096E04EE60F0020EE926EFA804D0EF505E
:1040E0002F0B0A6EDFEC01F004EE80F0020EE926E1
:1040F000EF50096E04EEA0F0020EE926EFA804D0FE
:10410000EF502F0B0A6EDFEC01F004EEC0F0020E50
:10411000E926EF50096E04EEE0F0020EE926EFA862
:1041200004D0EF502F0B0A6EDFEC01F005EE00F02B
:10413000020EE926EF50096E05EE20F0020EE92688
:10414000EFA804D0EF502F0B0A6EDFEC01F005EE64
:1041500040F0020EE926EF50096E05EE60F0020E07
:10416000E926EFA804D0EF502F0B0A6EDFEC01F028
:1041700005EE80F0020EE926EF50096E05EEA0F084
:10418000020EE926EFA804D0EF502F0B0A6EDFECE9
:1041900001F005EEC0F0020EE926EF50096E05EEC3
:1041A000E0F0020EE926EFA804D0EF502F0B0A6EC4
:1041B000DFEC01F006EE00F0020EE926EF50096E8A
:1041C00006EE20F0020EE926EFA804D0EF502F0BE8
:1041D0000A6EDFEC01F006EE40F0020EE926EF5029
:1041E000096E06EE60F0020EE926EFA804D0EF504B
:1041F0002F0B0A6EDFEC01F006EE80F0020EE926CE
:10420000EF50096E06EEA0F0020EE926EFA804D0EA
:10421000EF502F0B0A6EDFEC01F006EEC0F0020E3D
:10422000E926EF50096E06EEE0F0020EE926EFA84F
:1042300004D0EF502F0B0A6EDFEC01F061EF22F09B
:10424000A23F03D0A20761EF22F0A251C00AD8A476
:1042500061EF22F0828304EE00F0020EE926EF50B7
:10426000096E04EE20F0020EE926EF500A6E010EF0
:10427000026320D0300E0A12DFEC01F0225302E17B
:1042800061EF22F0B20E086E040E186E2251E8049F
:10429000F00BE8380A6E2251E8040F0BE83842119F
:1042A000096E0942099E42B10A8A0A88DFEC01F0D0
:1042B00061EF22F0030E02630ED082B706D0300EFB
:1042C0000A12DFEC01F061EF22F0100E0A12DFECAF
:1042D00001F061EF22F0050E02630FD0300E0A12DA
:1042E000DFEC01F062A161EF22F0830E086E020E96
:1042F000186EDFEC01F061EF22F0070E02630FD0C1
:10430000100E0A12DFEC01F062A161EF22F0820EC2
:10431000086E020E186EDFEC01F061EF22F0210E44
:10432000026361EF22F004EE00F0020EE926EF5086
:10433000096E04EE20F0020EE926EFA804D0EF503B
:104340003F0B0A6EDFEC01F004EE40F0020EE926AE
:10435000EF50096E04EE60F0020EE926EFA804D0DB
:10436000EF503F0B0A6EDFEC01F004EE80F0020E1E
:10437000E926EF50096E04EEA0F0020EE926EFA840
:1043800004D0EF503F0B0A6EDFEC01F004EEC0F0FA
:10439000020EE926EF50096E04EEE0F0020EE92667
:1043A000EFA804D0EF503F0B0A6EDFEC01F005EEF2
:1043B00000F0020EE926EF50096E05EE20F0020E25
:1043C000E926EFA804D0EF503F0B0A6EDFEC01F0B6
:1043D00005EE40F0020EE926EF50096E05EE60F0A2
:1043E000020EE926EFA804D0EF503F0B0A6EDFEC77
:1043F00001F005EE80F0020EE926EF50096E05EEA1
:10440000A0F0020EE926EFA804D0EF503F0B0A6E91
:10441000DFEC01F005EEC0F0020EE926EF50096E68
:1044200005EEE0F0020EE926EFA804D0EF503F0BB6
:104430000A6EDFEC01F006EE00F0020EE926EF5006
:10444000096E06EE20F0020EE926EFA804D0EF5028
:104450003F0B0A6EDFEC01F006EE40F0020EE9269B
:10446000EF50096E06EE60F0020EE926EFA804D0C8
:10447000EF503F0B0A6EDFEC01F006EE80F0020E0B
:10448000E926EF50096E06EEA0F0020EE926EFA82D
:1044900004D0EF503F0B0A6EDFEC01F006EEC0F0E7
:1044A000020EE926EF50096E06EEE0F0020EE92654
:1044B000EFA804D0EF503F0B0A6EDFEC01F061EF84
:1044C00022F0000003A176D284A06CEF22F063A159
:1044D0006FEF22F099EF23F063A199EF23F0A3513E
:1044E000D8B4DAEF24F0A307A351400AD8A4DAEF36
:1044F00024F0839304EE00F0030EE926EF50096EDA
:1045000004EE20F0030EE926EF500A6E010E03635D
:104510001FD0100E0A12DFEC01F0235302E1DAEF94
:1045200024F0B20E086E040E186E2351E804F00B4E
:10453000E8380A6E2351E8040F0BE8384311096E7E
:104540000942099E43B10A8ADFEC01F0DAEF24F058
:10455000030E03630CD083B706D0200E0A12DFECE3
:1045600001F0DAEF24F0DFEC01F0DAEF24F0050ED1
:10457000036306D0200E0A12DFEC01F0DAEF24F01C
:10458000070E036304D0DFEC01F0DAEF24F0210E14
:104590000363DAEF24F004EE00F0030EE926EF5097
:1045A000096E04EE20F0030EE926EFA804D0EF50C8
:1045B0002F0B0A6EDFEC01F004EE40F0030EE9264B
:1045C000EF50096E04EE60F0030EE926EFA804D068
:1045D000EF502F0B0A6EDFEC01F004EE80F0030EBB
:1045E000E926EF50096E04EEA0F0030EE926EFA8CD
:1045F00004D0EF502F0B0A6EDFEC01F004EEC0F098
:10460000030EE926EF50096E04EEE0F0030EE926F2
:10461000EFA804D0EF502F0B0A6EDFEC01F005EE8F
:1046200000F0030EE926EF50096E05EE20F0030EB0
:10463000E926EFA804D0EF502F0B0A6EDFEC01F053
:1046400005EE40F0030EE926EF50096E05EE60F02E
:10465000030EE926EFA804D0EF502F0B0A6EDFEC13
:1046600001F005EE80F0030EE926EF50096E05EE2D
:10467000A0F0030EE926EFA804D0EF502F0B0A6E2E
:10468000DFEC01F005EEC0F0030EE926EF50096EF5
:1046900005EEE0F0030EE926EFA804D0EF502F0B53
:1046A0000A6EDFEC01F006EE00F0030EE926EF5093
:1046B000096E06EE20F0030EE926EFA804D0EF50B5
:1046C0002F0B0A6EDFEC01F006EE40F0030EE92638
:1046D000EF50096E06EE60F0030EE926EFA804D055
:1046E000EF502F0B0A6EDFEC01F006EE80F0030EA8
:1046F000E926EF50096E06EEA0F0030EE926EFA8BA
:1047000004D0EF502F0B0A6EDFEC01F006EEC0F084
:10471000030EE926EF50096E06EEE0F0030EE926DF
:10472000EFA804D0EF502F0B0A6EDFEC01F0DAEFA8
:1047300024F0A33F03D0A307DAEF24F0A351C00A6B
:10474000D8A4DAEF24F0838304EE00F0030EE92608
:10475000EF50096E04EE20F0030EE926EF500A6ECA
:10476000010E036320D0300E0A12DFEC01F0235358
:1047700002E1DAEF24F0B20E086E040E186E235137
:10478000E804F00BE8380A6E2351E8040F0BE83810
:104790004311096E0942099E43B10A8A0A88DFEC77
:1047A00001F0DAEF24F0030E03630ED083B706D0D6
:1047B000300E0A12DFEC01F0DAEF24F0100E0A12CC
:1047C000DFEC01F0DAEF24F0050E03630FD0300EBA
:1047D0000A12DFEC01F063A1DAEF24F0830E086E19
:1047E000020E186EDFEC01F0DAEF24F0070E03631F
:1047F0000FD0100E0A12DFEC01F063A1DAEF24F003
:10480000820E086E020E186EDFEC01F0DAEF24F073
:10481000210E0363DAEF24F004EE00F0030EE92624
:10482000EF50096E04EE20F0030EE926EFA804D045
:10483000EF503F0B0A6EDFEC01F004EE40F0030E88
:10484000E926EF50096E04EE60F0030EE926EFA8AA
:1048500004D0EF503F0B0A6EDFEC01F004EE80F065
:10486000030EE926EF50096E04EEA0F0030EE926D0
:10487000EFA804D0EF503F0B0A6EDFEC01F004EE1E
:10488000C0F0030EE926EF50096E04EEE0F0030ECF
:10489000E926EFA804D0EF503F0B0A6EDFEC01F0E1
:1048A00005EE00F0030EE926EF50096E05EE20F04C
:1048B000030EE926EFA804D0EF503F0B0A6EDFECA1
:1048C00001F005EE40F0030EE926EF50096E05EE0B
:1048D00060F0030EE926EFA804D0EF503F0B0A6EFC
:1048E000DFEC01F005EE80F0030EE926EF50096ED3
:1048F00005EEA0F0030EE926EFA804D0EF503F0B21
:104900000A6EDFEC01F005EEC0F0030EE926EF5071
:10491000096E05EEE0F0030EE926EFA804D0EF5093
:104920003F0B0A6EDFEC01F006EE00F0030EE92605
:10493000EF50096E06EE20F0030EE926EFA804D032
:10494000EF503F0B0A6EDFEC01F006EE40F0030E75
:10495000E926EF50096E06EE60F0030EE926EFA897
:1049600004D0EF503F0B0A6EDFEC01F006EE80F052
:10497000030EE926EF50096E06EEA0F0030EE926BD
:10498000EFA804D0EF503F0B0A6EDFEC01F006EE0B
:10499000C0F0030EE926EF50096E06EEE0F0030EBC
:1049A000E926EFA804D0EF503F0B0A6EDFEC01F0D0
:1049B000DAEF24F0000004A176D284A2E5EF24F01F
:1049C00064A1E8EF24F012EF26F064A112EF26F0C4
:1049D000A451D8B453EF27F0A407A451400AD8A497
:1049E00053EF27F0849304EE00F0040EE926EF5015
:1049F000096E04EE20F0040EE926EF500A6E010E57
:104A000004631FD0100E0A12DFEC01F0245302E100
:104A100053EF27F0B20E086E040E186E2451E8040E
:104A2000F00BE8380A6E2451E8040F0BE838441103
:104A3000096E0942099E44B10A8ADFEC01F053EF86
:104A400027F0030E04630CD084B706D0200E0A12A0
:104A5000DFEC01F053EF27F0DFEC01F053EF27F02C
:104A6000050E046306D0200E0A12DFEC01F053EFAE
:104A700027F0070E046304D0DFEC01F053EF27F0BA
:104A8000210E046353EF27F004EE00F0040EE92634
:104A9000EF50096E04EE20F0040EE926EFA804D0D2
:104AA000EF502F0B0A6EDFEC01F004EE40F0040E25
:104AB000E926EF50096E04EE60F0040EE926EFA837
:104AC00004D0EF502F0B0A6EDFEC01F004EE80F003
:104AD000040EE926EF50096E04EEA0F0040EE9265C
:104AE000EFA804D0EF502F0B0A6EDFEC01F004EEBC
:104AF000C0F0040EE926EF50096E04EEE0F0040E5B
:104B0000E926EFA804D0EF502F0B0A6EDFEC01F07E
:104B100005EE00F0040EE926EF50096E05EE20F0D8
:104B2000040EE926EFA804D0EF502F0B0A6EDFEC3D
:104B300001F005EE40F0040EE926EF50096E05EE97
:104B400060F0040EE926EFA804D0EF502F0B0A6E98
:104B5000DFEC01F005EE80F0040EE926EF50096E5F
:104B600005EEA0F0040EE926EFA804D0EF502F0BBD
:104B70000A6EDFEC01F005EEC0F0040EE926EF50FE
:104B8000096E05EEE0F0040EE926EFA804D0EF5020
:104B90002F0B0A6EDFEC01F006EE00F0040EE926A2
:104BA000EF50096E06EE20F0040EE926EFA804D0BF
:104BB000EF502F0B0A6EDFEC01F006EE40F0040E12
:104BC000E926EF50096E06EE60F0040EE926EFA824
:104BD00004D0EF502F0B0A6EDFEC01F006EE80F0F0
:104BE000040EE926EF50096E06EEA0F0040EE92649
:104BF000EFA804D0EF502F0B0A6EDFEC01F006EEA9
:104C0000C0F0040EE926EF50096E06EEE0F0040E47
:104C1000E926EFA804D0EF502F0B0A6EDFEC01F06D
:104C200053EF27F0A43F03D0A40753EF27F0A4517C
:104C3000C00AD8A453EF27F0848304EE00F0040EDA
:104C4000E926EF50096E04EE20F0040EE926EF503D
:104C50000A6E010E046320D0300E0A12DFEC01F060
:104C6000245302E153EF27F0B20E086E040E186EC3
:104C70002451E804F00BE8380A6E2451E8040F0BC5
:104C8000E8384411096E0942099E44B10A8A0A882B
:104C9000DFEC01F053EF27F0030E04630ED084B76E
:104CA00006D0300E0A12DFEC01F053EF27F0100EA1
:104CB0000A12DFEC01F053EF27F0050E04630FD06A
:104CC000300E0A12DFEC01F064A153EF27F0830EDF
:104CD000086E020E186EDFEC01F053EF27F0070E9E
:104CE00004630FD0100E0A12DFEC01F064A153EF41
:104CF00027F0820E086E020E186EDFEC01F053EF03
:104D000027F0210E046353EF27F004EE00F0040EA9
:104D1000E926EF50096E04EE20F0040EE926EFA814
:104D200004D0EF503F0B0A6EDFEC01F004EE40F0D0
:104D3000040EE926EF50096E04EE60F0040EE92639
:104D4000EFA804D0EF503F0B0A6EDFEC01F004EE49
:104D500080F0040EE926EF50096E04EEA0F0040E78
:104D6000E926EFA804D0EF503F0B0A6EDFEC01F00C
:104D700004EEC0F0040EE926EF50096E04EEE0F0F8
:104D8000040EE926EFA804D0EF503F0B0A6EDFECCB
:104D900001F005EE00F0040EE926EF50096E05EE75
:104DA00020F0040EE926EFA804D0EF503F0B0A6E66
:104DB000DFEC01F005EE40F0040EE926EF50096E3D
:104DC00005EE60F0040EE926EFA804D0EF503F0B8B
:104DD0000A6EDFEC01F005EE80F0040EE926EF50DC
:104DE000096E05EEA0F0040EE926EFA804D0EF50FE
:104DF0003F0B0A6EDFEC01F005EEC0F0040EE92671
:104E0000EF50096E05EEE0F0040EE926EFA804D09D
:104E1000EF503F0B0A6EDFEC01F006EE00F0040EDF
:104E2000E926EF50096E06EE20F0040EE926EFA801
:104E300004D0EF503F0B0A6EDFEC01F006EE40F0BD
:104E4000040EE926EF50096E06EE60F0040EE92626
:104E5000EFA804D0EF503F0B0A6EDFEC01F006EE36
:104E600080F0040EE926EF50096E06EEA0F0040E65
:104E7000E926EFA804D0EF503F0B0A6EDFEC01F0FB
:104E800006EEC0F0040EE926EF50096E06EEE0F0E3
:104E9000040EE926EFA804D0EF503F0B0A6EDFECBA
:104EA00001F053EF27F0000005A176D284A45EEF55
:104EB00027F065A161EF27F08BEF28F065A18BEF5C
:104EC00028F0A551D8B4CCEF29F0A507A551400A88
:104ED000D8A4CCEF29F0859304EE00F0050EE92666
:104EE000EF50096E04EE20F0050EE926EF500A6E31
:104EF000010E05631FD0100E0A12DFEC01F02553DE
:104F000002E1CCEF29F0B20E086E040E186E2551A6
:104F1000E804F00BE8380A6E2551E8040F0BE83876
:104F20004511096E0942099E45B10A8ADFEC01F07C
:104F3000CCEF29F0030E05630CD085B706D0200E08
:104F40000A12DFEC01F0CCEF29F0DFEC01F0CCEF3E
:104F500029F0050E056306D0200E0A12DFEC01F0E1
:104F6000CCEF29F0070E056304D0DFEC01F0CCEFA5
:104F700029F0210E0563CCEF29F004EE00F0050EB8
:104F8000E926EF50096E04EE20F0050EE926EFA8A1
:104F900004D0EF502F0B0A6EDFEC01F004EE40F06E
:104FA000050EE926EF50096E04EE60F0050EE926C5
:104FB000EFA804D0EF502F0B0A6EDFEC01F004EEE7
:104FC00080F0050EE926EF50096E04EEA0F0050E04
:104FD000E926EFA804D0EF502F0B0A6EDFEC01F0AA
:104FE00004EEC0F0050EE926EF50096E04EEE0F085
:104FF000050EE926EFA804D0EF502F0B0A6EDFEC68
:1050000001F005EE00F0050EE926EF50096E05EE01
:1050100020F0050EE926EFA804D0EF502F0B0A6E02
:10502000DFEC01F005EE40F0050EE926EF50096EC9
:1050300005EE60F0050EE926EFA804D0EF502F0B27
:105040000A6EDFEC01F005EE80F0050EE926EF5068
:10505000096E05EEA0F0050EE926EFA804D0EF508A
:105060002F0B0A6EDFEC01F005EEC0F0050EE9260D
:10507000EF50096E05EEE0F0050EE926EFA804D02A
:10508000EF502F0B0A6EDFEC01F006EE00F0050E7C
:10509000E926EF50096E06EE20F0050EE926EFA88E
:1050A00004D0EF502F0B0A6EDFEC01F006EE40F05B
:1050B000050EE926EF50096E06EE60F0050EE926B2
:1050C000EFA804D0EF502F0B0A6EDFEC01F006EED4
:1050D00080F0050EE926EF50096E06EEA0F0050EF1
:1050E000E926EFA804D0EF502F0B0A6EDFEC01F099
:1050F00006EEC0F0050EE926EF50096E06EEE0F070
:10510000050EE926EFA804D0EF502F0B0A6EDFEC56
:1051100001F0CCEF29F0A53F03D0A507CCEF29F093
:10512000A551C00AD8A4CCEF29F0858304EE00F085
:10513000050EE926EF50096E04EE20F0050EE92673
:10514000EF500A6E010E056320D0300E0A12DFEC1C
:1051500001F0255302E1CCEF29F0B20E086E040EE7
:10516000186E2551E804F00BE8380A6E2551E80462
:105170000F0BE8384511096E0942099E45B10A8AAC
:105180000A88DFEC01F0CCEF29F0030E05630ED0A6
:1051900085B706D0300E0A12DFEC01F0CCEF29F013
:1051A000100E0A12DFEC01F0CCEF29F0050E0563BA
:1051B0000FD0300E0A12DFEC01F065A1CCEF29F020
:1051C000830E086E020E186EDFEC01F0CCEF29F0B2
:1051D000070E05630FD0100E0A12DFEC01F065A177
:1051E000CCEF29F0820E086E020E186EDFEC01F093
:1051F000CCEF29F0210E0563CCEF29F004EE00F08E
:10520000050EE926EF50096E04EE20F0050EE926A2
:10521000EFA804D0EF503F0B0A6EDFEC01F004EE74
:1052200040F0050EE926EF50096E04EE60F0050E21
:10523000E926EFA804D0EF503F0B0A6EDFEC01F037
:1052400004EE80F0050EE926EF50096E04EEA0F0A2
:10525000050EE926EFA804D0EF503F0B0A6EDFECF5
:1052600001F004EEC0F0050EE926EF50096E04EEE1
:10527000E0F0050EE926EFA804D0EF503F0B0A6ED0
:10528000DFEC01F005EE00F0050EE926EF50096EA7
:1052900005EE20F0050EE926EFA804D0EF503F0BF5
:1052A0000A6EDFEC01F005EE40F0050EE926EF5046
:1052B000096E05EE60F0050EE926EFA804D0EF5068
:1052C0003F0B0A6EDFEC01F005EE80F0050EE926DB
:1052D000EF50096E05EEA0F0050EE926EFA804D008
:1052E000EF503F0B0A6EDFEC01F005EEC0F0050E4B
:1052F000E926EF50096E05EEE0F0050EE926EFA86D
:1053000004D0EF503F0B0A6EDFEC01F006EE00F028
:10531000050EE926EF50096E06EE20F0050EE9268F
:10532000EFA804D0EF503F0B0A6EDFEC01F006EE61
:1053300040F0050EE926EF50096E06EE60F0050E0E
:10534000E926EFA804D0EF503F0B0A6EDFEC01F026
:1053500006EE80F0050EE926EF50096E06EEA0F08D
:10536000050EE926EFA804D0EF503F0B0A6EDFECE4
:1053700001F006EEC0F0050EE926EF50096E06EECC
:10538000E0F0050EE926EFA804D0EF503F0B0A6EBF
:10539000DFEC01F0CCEF29F0000006A176D280AE60
:1053A000D7EF29F066A1DAEF29F004EF2BF066A120
:1053B00004EF2BF0A651D8B445EF2CF0A607A65168
:1053C000400AD8A445EF2CF0869304EE00F0060EB8
:1053D000E926EF50096E04EE20F0060EE926EF50A4
:1053E0000A6E010E06631FD0100E0A12DFEC01F0E8
:1053F000265302E145EF2CF0B20E086E040E186E33
:105400002651E804F00BE8380A6E2651E8040F0B29
:10541000E8384611096E0942099E46B10A8ADFEC56
:1054200001F045EF2CF0030E06630CD086B706D0D2
:10543000200E0A12DFEC01F045EF2CF0DFEC01F05A
:1054400045EF2CF0050E066306D0200E0A12DFECA5
:1054500001F045EF2CF0070E066304D0DFEC01F0FD
:1054600045EF2CF0210E066345EF2CF004EE00F022
:10547000060EE926EF50096E04EE20F0060EE9262E
:10548000EFA804D0EF502F0B0A6EDFEC01F004EE12
:1054900040F0060EE926EF50096E04EE60F0060EAD
:1054A000E926EFA804D0EF502F0B0A6EDFEC01F0D5
:1054B00004EE80F0060EE926EF50096E04EEA0F02F
:1054C000060EE926EFA804D0EF502F0B0A6EDFEC92
:1054D00001F004EEC0F0060EE926EF50096E04EE6E
:1054E000E0F0060EE926EFA804D0EF502F0B0A6E6D
:1054F000DFEC01F005EE00F0060EE926EF50096E34
:1055000005EE20F0060EE926EFA804D0EF502F0B91
:105510000A6EDFEC01F005EE40F0060EE926EF50D2
:10552000096E05EE60F0060EE926EFA804D0EF50F4
:105530002F0B0A6EDFEC01F005EE80F0060EE92677
:10554000EF50096E05EEA0F0060EE926EFA804D094
:10555000EF502F0B0A6EDFEC01F005EEC0F0060EE7
:10556000E926EF50096E05EEE0F0060EE926EFA8F9
:1055700004D0EF502F0B0A6EDFEC01F006EE00F0C6
:10558000060EE926EF50096E06EE20F0060EE9261B
:10559000EFA804D0EF502F0B0A6EDFEC01F006EEFF
:1055A00040F0060EE926EF50096E06EE60F0060E9A
:1055B000E926EFA804D0EF502F0B0A6EDFEC01F0C4
:1055C00006EE80F0060EE926EF50096E06EEA0F01A
:1055D000060EE926EFA804D0EF502F0B0A6EDFEC81
:1055E00001F006EEC0F0060EE926EF50096E06EE59
:1055F000E0F0060EE926EFA804D0EF502F0B0A6E5C
:10560000DFEC01F045EF2CF0A63F03D0A60745EFF5
:105610002CF0A651C00AD8A445EF2CF0868304EEE6
:1056200000F0060EE926EF50096E04EE20F0060E9B
:10563000E926EF500A6E010E066320D0300E0A12E2
:10564000DFEC01F0265302E145EF2CF0B20E086EBC
:10565000040E186E2651E804F00BE8380A6E265145
:10566000E8040F0BE8384611096E0942099E46B15D
:105670000A8A0A88DFEC01F045EF2CF0030E06637E
:105680000ED086B706D0300E0A12DFEC01F045EFDF
:105690002CF0100E0A12DFEC01F045EF2CF0050E95
:1056A00006630FD0300E0A12DFEC01F066A145EF61
:1056B0002CF0830E086E020E186EDFEC01F045EF41
:1056C0002CF0070E06630FD0100E0A12DFEC01F06B
:1056D00066A145EF2CF0820E086E020E186EDFEC0C
:1056E00001F045EF2CF0210E066345EF2CF004EE9F
:1056F00000F0060EE926EF50096E04EE20F0060ECB
:10570000E926EFA804D0EF503F0B0A6EDFEC01F062
:1057100004EE40F0060EE926EF50096E04EE60F04C
:10572000060EE926EFA804D0EF503F0B0A6EDFEC1F
:1057300001F004EE80F0060EE926EF50096E04EE4B
:10574000A0F0060EE926EFA804D0EF503F0B0A6E3A
:10575000DFEC01F004EEC0F0060EE926EF50096E12
:1057600004EEE0F0060EE926EFA804D0EF503F0B60
:105770000A6EDFEC01F005EE00F0060EE926EF50B0
:10578000096E05EE20F0060EE926EFA804D0EF50D2
:105790003F0B0A6EDFEC01F005EE40F0060EE92645
:1057A000EF50096E05EE60F0060EE926EFA804D072
:1057B000EF503F0B0A6EDFEC01F005EE80F0060EB5
:1057C000E926EF50096E05EEA0F0060EE926EFA8D7
:1057D00004D0EF503F0B0A6EDFEC01F005EEC0F095
:1057E000060EE926EF50096E05EEE0F0060EE926FA
:1057F000EFA804D0EF503F0B0A6EDFEC01F006EE8D
:1058000000F0060EE926EF50096E06EE20F0060EB7
:10581000E926EFA804D0EF503F0B0A6EDFEC01F051
:1058200006EE40F0060EE926EF50096E06EE60F037
:10583000060EE926EFA804D0EF503F0B0A6EDFEC0E
:1058400001F006EE80F0060EE926EF50096E06EE36
:10585000A0F0060EE926EFA804D0EF503F0B0A6E29
:10586000DFEC01F006EEC0F0060EE926EF50096EFF
:1058700006EEE0F0060EE926EFA804D0EF503F0B4D
:105880000A6EDFEC01F045EF2CF0000007A176D2A4
:1058900080AC50EF2CF067A153EF2CF07DEF2DF092
:1058A00067A17DEF2DF0A751D8B4BEEF2EF0A7076A
:1058B000A751400AD8A4BEEF2EF0879304EE00F063
:1058C000070EE926EF50096E04EE20F0070EE926D8
:1058D000EF500A6E010E07631FD0100E0A12DFECA4
:1058E00001F0275302E1BEEF2EF0B20E086E040E57
:1058F000186E2751E804F00BE8380A6E2751E804C7
:105900000F0BE8384711096E0942099E47B10A8A10
:10591000DFEC01F0BEEF2EF0030E07630CD087B76B
:1059200006D0200E0A12DFEC01F0BEEF2EF0DFEC05
:1059300001F0BEEF2EF0050E076306D0200E0A120E
:10594000DFEC01F0BEEF2EF0070E076304D0DFECB2
:1059500001F0BEEF2EF0210E0763BEEF2EF004EE35
:1059600000F0070EE926EF50096E04EE20F0070E56
:10597000E926EFA804D0EF502F0B0A6EDFEC01F000
:1059800004EE40F0070EE926EF50096E04EE60F0D9
:10599000070EE926EFA804D0EF502F0B0A6EDFECBC
:1059A00001F004EE80F0070EE926EF50096E04EED8
:1059B000A0F0070EE926EFA804D0EF502F0B0A6ED7
:1059C000DFEC01F004EEC0F0070EE926EF50096E9F
:1059D00004EEE0F0070EE926EFA804D0EF502F0BFD
:1059E0000A6EDFEC01F005EE00F0070EE926EF503D
:1059F000096E05EE20F0070EE926EFA804D0EF505F
:105A00002F0B0A6EDFEC01F005EE40F0070EE926E1
:105A1000EF50096E05EE60F0070EE926EFA804D0FE
:105A2000EF502F0B0A6EDFEC01F005EE80F0070E51
:105A3000E926EF50096E05EEA0F0070EE926EFA863
:105A400004D0EF502F0B0A6EDFEC01F005EEC0F032
:105A5000070EE926EF50096E05EEE0F0070EE92685
:105A6000EFA804D0EF502F0B0A6EDFEC01F006EE2A
:105A700000F0070EE926EF50096E06EE20F0070E43
:105A8000E926EFA804D0EF502F0B0A6EDFEC01F0EF
:105A900006EE40F0070EE926EF50096E06EE60F0C4
:105AA000070EE926EFA804D0EF502F0B0A6EDFECAB
:105AB00001F006EE80F0070EE926EF50096E06EEC3
:105AC000A0F0070EE926EFA804D0EF502F0B0A6EC6
:105AD000DFEC01F006EEC0F0070EE926EF50096E8C
:105AE00006EEE0F0070EE926EFA804D0EF502F0BEA
:105AF0000A6EDFEC01F0BEEF2EF0A73F03D0A70740
:105B0000BEEF2EF0A751C00AD8A4BEEF2EF08783B7
:105B100004EE00F0070EE926EF50096E04EE20F0C7
:105B2000070EE926EF500A6E010E076320D0300EF3
:105B30000A12DFEC01F0275302E1BEEF2EF0B20EA5
:105B4000086E040E186E2751E804F00BE8380A6E50
:105B50002751E8040F0BE8384711096E0942099EE6
:105B600047B10A8A0A88DFEC01F0BEEF2EF0030E7F
:105B700007630ED087B706D0300E0A12DFEC01F0B3
:105B8000BEEF2EF0100E0A12DFEC01F0BEEF2EF089
:105B9000050E07630FD0300E0A12DFEC01F067A18B
:105BA000BEEF2EF0830E086E020E186EDFEC01F0D1
:105BB000BEEF2EF0070E07630FD0100E0A12DFECB7
:105BC00001F067A1BEEF2EF0820E086E020E186E75
